:020000040800F2
:108000000000022019890008A9870008AB87000832
:10801000AD870008AF870008B187000800000000A6
:10802000000000000000000000000000B38700080E
:10803000B587000800000000B7870008B98700086E
:108040006989000869890008698900086989000848
:108050006989000869890008698900086989000838
:108060006989000869890008698900086989000828
:108070006989000869890008698900086989000818
:108080006989000869890008698900080000000002
:1080900000000000000000000000000069890008E6
:1080A00069890008698900086989000869890008E8
:1080B00069890008698900086989000869890008D8
:1080C00069890008698900086989000869890008C8
:1080D00069890008698900086989000800000000B2
:1080E00069890008698900086989000800000000A2
:1080F0000000000000000000000000006989000886
:108100000000000069890008698900086989000881
:10811000000000000000000000000000000000005F
:108120006989000869890008698900086989000867
:108130006989000800000000000000000000000045
:10814000000000000000000000000000BD870008E3
:108150006989000869890008698900086989000837
:10816000698900086989000800000000000000001B
:1081700000000000000000000000000000000000FF
:1081800000000000698900080000000000000000F5
:088190006989000869890008F3
:1081A00010B5054C237833B9044B13B10448AFF331
:1081B00000800123237010BD540100200000000046
:1081C000C4C8000808B5034B1BB103490348AFF30B
:1081D000008008BD0000000058010020C4C800084D
:1081E000034613F8012B002AFBD1181A01387047F7
:1081F00001F0FF01102A2BDB10F0070F08D010F858
:10820000013B013A8B422DD010F0070F42B3F6D15B
:10821000F0B441EA012141EA014122F007047FF074
:1082200000070023F0E80256083C85EA010586EACB
:10823000010685FA47F5A3FA87F586FA47F6A5FA07
:1082400087F68EB9EED1F0BC01F0FF0102F0070213
:1082500032B110F8013B013A83EA010313B1F8D1BE
:108260000020704701387047002D06BF354603389F
:10827000073815F0010F07D1013015F4807F02BFD8
:10828000013015F4C03F0130F0BC0138704700BF29
:1082900053B94AB9002908BF00281CBF4FF0FF316D
:1082A0004FF0FF3000F088B9ADF1080C6DE904CE55
:1082B00000F006F8DDF804E0DDE9022304B07047C1
:1082C0002DE9F047089D8E4604468846002B4AD18A
:1082D0008A42174662D9B2FA82F64EB1C6F120033D
:1082E00001FA06F820FA03F3B74043EA0808B4405D
:1082F0004FEA174E1FFA87FCB8FBFEF1230C0EFB6A
:10830000118843EA084301FB0CF29A4209D9FB1891
:1083100001F1FF3080F0EA809A4240F2E7800239B2
:108320003B449A1AA3B2B2FBFEF00EFB102243EAC2
:10833000024300FB0CFC9C4509D9FB1800F1FF32FD
:1083400080F0D6809C4540F2D3803B44023840EA1E
:108350000140A3EB0C0300211DB1F3400022C5E94D
:108360000032BDE8F0878B4205D90DB1C5E90001A7
:1083700000210846F5E7B3FA83F1002946D1734599
:1083800002D3824200F20581841A6EEB03020120BF
:108390009046002DE5D0C5E90048E2E7002A00F04C
:1083A0009080B2FA82F6002E40F0A4808A1A030C64
:1083B0004FEA174E80B2BCB20121B2FBFEFC0EFBAD
:1083C0001C2243EA024304FB0CF29A4207D9FB1831
:1083D0000CF1FF3802D29A4200F2E080C4469B1AA8
:1083E000B3FBFEF20EFB123340EA034302FB04F43C
:1083F0009C4207D9FB1802F1FF3002D29C4200F2E6
:10840000CA8002461B1B42EA0C40A5E7C1F12006C8
:108410008B4022FA06F71F430EFA01F420FA06F306
:108420002EFA06FE4FEA1749234300FA01F81FFA15
:1084300087FCBEFBF9F01C0C09FB10EE44EA0E446D
:1084400000FB0CFEA64502FA01F209D93C1900F125
:10845000FF3A80F09C80A64540F2998002383C4467
:10846000A4EB0E041FFA83FEB4FBF9F309FB1344DB
:108470004EEA044403FB0CFCA44508D93C1903F163
:10848000FF3E80F08280A4457FD9023B3C4443EA12
:108490000040A4EB0C04A0FB02EC64457346E146EB
:1084A00062D35FD05DB1B8EB030264EB090404FA58
:1084B00006F622FA01F31E43CC40C5E90064002110
:1084C0004FE7B1FBF2FC010C41EA0E4180B240EAF9
:1084D00001423B4638463C46B846BE462026B1FBE4
:1084E000F7F1A2EB080241EA0C4166E7014618E702
:1084F00010462CE7C6F120022EFA02F3B740B14035
:1085000020FA02F24FEA174E0A43B3FBFEF8BCB260
:108510000EFB1833110C41EA034108FB04F9B0408B
:1085200089454FEA104380B23ED9791808F1FF3CE3
:1085300001D289451FD8A1EB0901B1FBFEF909FB66
:1085400004F80EFB191192B242EA0142424529D2C7
:10855000BA1809F1FF31C4D24245C2D2A9F10201D1
:108560003A44BEE7F0459DD2BEEB02036CEB070C2C
:108570000138E14696E7A7EB09094944A8F1020C46
:10858000B1FBFEF909FB04F8DBE773467FE75046D1
:1085900066E70846FDE63B44023A33E7ACF1020CDD
:1085A0003B441CE749469CE7A1EB0901C446B1FBEB
:1085B000FEF909FB04F8C4E7704700BF30B589B085
:1085C0001422002103A803F0FBFB00241D4B0094A0
:1085D0001A6B1D4D42F004021A631A6B02F004027A
:1085E0000092009A01941A6B42F080021A631A6B8F
:1085F00002F080020192019A02941A6B42F0010289
:108600001A631B6B03F001030293284601224FF407
:108610000051029B00F03AFB4FF40052112303A9D2
:108620002846CDE90323CDE9054400F069FA01238A
:108630000648059303A9CDE9033400F061FA09B0B7
:1086400030BD00BF00380240000802400000024078
:1086500010B594B0102200210AA803F0B1FB142237
:10866000002103A803F0ACFB1F4B002101911A6C01
:1086700042F080521A641B6C03F080530193019BFB
:108680001A4B02911A6842F440421A601B6803F4C4
:1086900040430293029B01224FF480330224CDE930
:1086A00008234FF48003CDE90E431921C023CDE9FF
:1086B000101308A804231294139301F027F808B1AB
:1086C00072B6FEE70F23CDE903344FF48053CDE9B2
:1086D00006300590032103A801F0F4F908B172B641
:1086E000FEE714B010BD00BF00380240007000402B
:1086F000F8B500F05FF9FFF7ABFFFFF75FFF00F0A1
:10870000B9F802F055FF1248124F134E134D03F003
:1087100077FA134B134819685C6803F009FA21468D
:10872000114803F005FA4FF47A743B689C42FCD878
:108730004FF40051304600F0AEFA4FF47A712846FB
:10874000B4FBF1F103F0F4F904F57A74EDE700BF3E
:10875000DCC80008BC010020000802403DC9000838
:108760000080000813C9000828C9000872B6FEE797
:1087700082B00C4B002100915A6C42F480425A6442
:108780005A6C02F480420092009A01911A6C42F0F5
:1087900080521A641B6C03F080530193019B02B05A
:1087A000704700BF00380240FEE7FEE7FEE7FEE745
:1087B000FEE770477047704700F016B9014800F0B7
:1087C00039BC00BFC018002070B50D4614460E46D7
:1087D000731B9C4201DC204670BDAFF3008006F89D
:1087E000010BF5E74FF0FF3070474FF400534B603B
:1087F0000020704701207047002070470B4A116825
:1088000010B5034609B90A491160106809490A4CB4
:108810000344091B8B4206D903F020FB0C230360A1
:108820004FF0FF3010BD1360FCE700BF7001002067
:10883000F01E00200000022000040000034AD2F8CD
:10884000883043F47003C2F88830704700ED00E0D0
:108850000138012810B5144606D805484FF0FF33FB
:1088600092B201F0DCFA08B14FF0FF34204610BD9F
:10887000740100200B480C4A08B54FF4E133C0E9FD
:10888000002300230C22C0E90233C0E90523036161
:10889000C36101F095FA18B1BDE80840FFF766BF63
:1088A00008BD00BF740100200010014010B504464F
:1088B00088B01422002103A803F082FA2268144B26
:1088C0009A4223D103F59433002101915A6C114847
:1088D00042F010025A645A6C02F010020192019A9E
:1088E00002911A6B42F001021A631B6B03F0010341
:1088F0000293029B4FF4C06202230321CDE90323BC
:108900000723CDE9061303A900F0FAF808B010BD5B
:108910000010014000000240DFF834D0FFF78EFF66
:108920000C480D490D4A002302E0D458C4500433CA
:10893000C4188C42F9D30A4A0A4C002301E01360A0
:108940000432A242FBD303F08FFAFFF7D1FE704747
:10895000000002200000002054010020E8C90008A7
:1089600054010020F01E0020FEE7000038B50E4B39
:108970001A784FF47A73B3FBF2F30C4A0546106889
:10898000B0FBF3F000F0A8F8044658B90F2D09D851
:10899000024629464FF0FF3000F05EF8044B2046B7
:1089A0001D6038BD0120FCE704000020000000200D
:1089B0000800002008B50B4B1A6842F400721A60D8
:1089C0001A6842F480621A601A6842F480721A606F
:1089D000032000F02FF80F20FFF7C8FFFFF7C8FEB5
:1089E000002008BD003C0240034A044B11681B787C
:1089F0000B441360704700BFBC010020040000203E
:108A0000014B1868704700BFBC01002038B5044610
:108A1000FFF7F6FF631C1CBF054B1B78054618BF0C
:108A2000E418FFF7EDFF431BA342FAD338BD00BFA4
:108A3000040000200749CA6822F4E062030212041D
:108A400003F4E063120C134343F0BF6343F40033B9
:108A5000CB60704700ED00E0164B30B5DC68C4F326
:108A60000224C4F10703251D042B28BF0423062D6F
:108A70004FF0FF358CBF033C002405FA03F321EAD5
:108A80000303A54022EA0502A340002843EA0203AB
:108A9000ACBF00F16040084A4FEA0313B8BF00F0D2
:108AA0000F00DBB2AABF00F56140135480F8003319
:108AB00030BD00BF00ED00E014ED00E0002807DB52
:108AC000044A4109012300F01F00834042F821308D
:108AD000704700BF00E100E00138B0F1807F0BD2A9
:108AE0004FF0E023054A5861F02182F8231000205E
:108AF000072298611A6170470120704700ED00E07D
:108B00002DE9F74FDFF880915D4A00230D680124BD
:108B10009C4004EA0506AC4340F0A3804D6803275F
:108B200005F003044FEA430807FA08FC671E012F0B
:108B30006FEA0C0C34D8876807EA0C0ECF6807FA86
:108B400008F747EA0E078760476827EA060EC5F36D
:108B500000179F4047EA0E074760C76807EA0C0EF8
:108B60008F6807FA08F747EA0E07022CC76019D189
:108B70004FEAD30A00EB8A0A03F0070BDAF82070F9
:108B80004FEA8B0B4FF00F0E0EFA0BFE27EA0E0E7C
:108B90000F6907FA0BF747EA0E07CAF8207001E0E1
:108BA000032CDAD1076804FA08F407EA0C073C43FF
:108BB00015F4403F046054D000240194D9F8444097
:108BC00044F48044C9F84440D9F8444023F00307F2
:108BD00007F1804704F4804407F59C37019403F0C3
:108BE000030C019CD7F808E04FEA8C0C0F2404FA20
:108BF0000CF42EEA040E234CA04239D004F5806414
:108C0000A04237D004F58064A04235D004F58064DA
:108C1000A04233D004F58064A04214BF072404248A
:108C200004FA0CF444EA0E04BC609468F74315F4AB
:108C3000801F0CBF3C4034439460D46815F4001F7F
:108C40000CBF3C403443D460546815F4003F0CBF63
:108C50003C40344354601468ED0354BF3C403443FB
:108C600014600133102B7FF451AF03B0BDE8F08FD7
:108C70000024D5E70124D3E70224D1E70324CFE77A
:108C8000003C014000000240003802400AB181610E
:108C900070470904FBE7436901EA030221EA030183
:108CA00041EA024181617047F7B5044610B390F87C
:108CB0009534056803F0FF021BB980F8942402F094
:108CC0003FFD0323B5F1A04F84F8953404BF002382
:108CD000A371206801F0D4F9237C8DF80030251DA4
:108CE00095E80E00206801F010F9014630B102232A
:108CF00084F895340125284603B0F0BD206801F0C2
:108D0000C5F90028F3D1267904F11403012702469E
:108D1000C1B28E4203F124031BD8002104F5157360
:108D20000A46C8B2864203F1240320D8237C8DF87A
:108D3000003095E80E00206801F024FA054600286E
:108D4000D5D101236074206884F8953401F05EFD6C
:108D5000D1E723F80A0C43E9072203F8237C03F840
:108D6000241C03F8202C43F8142C0130D0E743E9ED
:108D7000072203F8232C03F8240C03F8202C43F8D3
:108D8000142C0131CDE710B50446006894F89434F2
:108D9000012B15D0012384F89434C3685B0606D5F3
:108DA000637B012B02BF836B43F48033836301F049
:108DB00061F9206801F01CFD002084F8940410BDC6
:108DC0000220FCE710B590F89424012A04460AD04A
:108DD000012280F894244174006801F0F9FC00201D
:108DE00084F8940410BD0220FCE770B501F00F0672
:108DF00006EBC60411F0800F05464FEA84044FF0DD
:108E0000240020D000FB065004F114010124294461
:108E10004475C2F30A028A604A780E700B7102B17F
:108E20004E83022B04BF00234B7195F89434012B21
:108E300012D00123286885F8943401F068FA0020E4
:108E400085F8940470BD00FB065004F515710024EC
:108E5000294480F85542DCE70220F3E710B50446C8
:108E600001F00F0000EBC00311F0800F4FEA830305
:108E70004FF0240215D002FB004203F1140101233C
:108E800021445375087094F89434012B12D00123B7
:108E9000206884F8943401F079FA002084F894046E
:108EA00010BD02FB004203F515710023214482F836
:108EB0005532E7E70220F3E770B501F00F052424EF
:108EC00004FB050104FB0504C4E998230023C4F84E
:108ED000683284F8553284F8545216468279006814
:108EE000012A01F5157108BFC4F8706201F0FAFAA1
:108EF000002070BD01F00F01242303FB0100D0F816
:108F00006802704770B501F00F05242404FB0501C9
:108F100004FB0504C4E908230023A362012363754D
:108F200025751646827900689A4201F1140108BF3E
:108F3000266301F0D7FA002070BD38B5037901F03F
:108F40000F05AB4204462BD311F0800F4FF02400E5
:108F50001DD000FB054100FB054001231431437582
:108F600001238B700D7094F894249A421AD02068D3
:108F700084F8943401F0D8FB2DB9A179206804F26B
:108F80009C4201F091FC002084F8940438BD00FB61
:108F900001431A4603F51571002382F85532DFE7C5
:108FA0000120F3E70220F1E738B5037901F00F0261
:108FB0009342044629D302EBC20311F0800F4FEA1B
:108FC00083034FF0240017D000FB024003F114018B
:108FD00001232144437500258D700A7094F8943460
:108FE000012B14D00123206884F8943401F0C7FBCE
:108FF00084F89454284638BD00FB024003F51571EF
:109000000023214480F85532E5E70120F3E70220F0
:10901000F1E701F00F0303EBC3030A064FEA8303F2
:109020004CBF03F1140103F515710144006801F010
:1090300003BA00002DE9F04F066889B004463046B7
:1090400001F020FC0390002840F05681206801F0D8
:10905000EBFB002800F05081D6F808382068C3F3F5
:109060000D23C4F8D43401F0DFFB870748BF226822
:10907000206842BF536903F00203536101F0D4FB3F
:10908000C00606F500652DD52268936923F010030C
:109090009361D6F8208008F4F013B3F5802F08F020
:1090A0000F0740F02C8147F6F07318EA030F14D035
:1090B000242303FB0747C8F30A19D7F860124A466E
:1090C000304601F011FBD7F860324B44C7F86032EC
:1090D000D7F868324B44C7F868322268936943F086
:1090E00010039361206801F09FFB010300F11A81D6
:1090F000206801F099FB42030DD5206801F0A0FB28
:109100002746049006F5106B4FF0000A049B206878
:10911000002B40F0D181206801F086FB002813DA93
:109120006B6823F001036B6094F8CC34012B40F0A2
:109130006982002184F8CC14204600F0E6FA226807
:10914000536903F000435361206801F06DFB07058C
:109150000AD5AB68D80702D5204602F061FB226829
:10916000536903F400635361206801F05DFBC1049F
:1091700033D56B68206823F001036B60102100F089
:10918000B5FF207906F510634FF67F31039A9042C0
:1091900000F23C82EB6943F00113EB61E37B002BAF
:1091A00000F05082D5F8843043F00B03C5F88430CA
:1091B0006B6C43F00B036B64D6F80038206823F423
:1091C000FE63C6F8003804F29C42A17901F06CFB02
:1091D0002268536903F480535361206801F024FB33
:1091E000820416D5206801F051FB206801F084F854
:1091F000E071276800F000FDE2790146384600F092
:10920000C9FE204602F0F9FA2268536903F40053BC
:109210005361206801F008FB030707D5204602F0E0
:10922000E8FA2268536903F008035361206801F0EB
:10923000FBFA070600F11182206801F0F5FAC0027E
:109240000CD5A04606F5126901272379BB4200F22E
:109250001D822268536903F480135361206801F072
:10926000E3FA81022BD594F804E0234606F5326137
:109270004FF0010CE6451DD993F87C720868012F68
:1092800040F01A82002880F21782D4F8D42482EAAF
:109290001040C20700F1108283F87B72B06940F081
:1092A0008000B0617069000600F106826B6843F4CB
:1092B00000736B602268536903F4001353612068E4
:1092C00001F0B2FA410007D5204602F0CDFA22683B
:1092D000536903F080435361206801F0A5FA420707
:1092E0000AD523685D686B0702D5204602F0C0FAF4
:1092F000226853682B43536009B0BDE8F08FB3F583
:10930000402F7FF4EAAE082204F29C41304601F07F
:10931000EBF9242303FB0747C8F30A18D7F8683290
:109320004344D8E6206801F083FA06F530680490DB
:10933000A2460027049B2068002B3FF4D9AE049B73
:10934000DB0778D55FFA87FB594601F081FA10F008
:10935000010F81461FD020680123C8F8083094F817
:1093600006C0016C00F5306303EB4713BCF1010F3D
:109370009A6840F08B8012F0080F07D0AF48814206
:1093800009D9120407D54FF4004203E012F0200F70
:109390005AD020229A6019F0080F21D00823C8F86B
:1093A00008302368A5491A6C03F5306303EB4713B3
:1093B0008A42986804D9010444BF4FF40040986081
:1093C0002046059202F0FEF9059A9C498A4207D987
:1093D000A179012904D1206804F29C4201F064FAC9
:1093E00019F0100F1CBF1023C8F8083019F0020F35
:1093F00014D073691A0642BF6B6843F480636B60D4
:109400009AF85732012B06D100238AF85732594671
:10941000204602F021FA0223C8F8083019F0200F84
:109420001CBF2023C8F8083019F4005F1CBF4FF49C
:109430000053C8F80830049B5B080137049308F117
:1094400020080AF1240A75E7DFF8F0C1614501D967
:10945000120498D41A69DAF87432C2F312029B1A11
:10946000CAF868326FB9D4F864222AB904F29C426F
:10947000012101F019FA04E0D4F860221A44C4F87A
:1094800060225946204602F0A3F984E7DFF8B0C114
:10949000614507D111043FF576AF9006F1D5202242
:1094A0009A60EEE7002FECD1D4F86432002BE8D1BB
:1094B00004F29C423946DCE7049BDB0740F19980CB
:1094C0005FFA8AF31946059301F0CBF910F0010F0A
:1094D00080461FD06B6B01210AF00F0201FA02F2E5
:1094E00023EA02036B63CBF80810A17901290DD19F
:1094F000D7E9072313443B62BAF1000F06D1636A30
:1095000023B9206804F29C4201F0CEF90599204667
:1095100002F067F918F0080F1CBF0823CBF80830D9
:1095200018F0100F1CBF1023CBF8083018F0400FB4
:109530001CBF4023CBF8083018F0020F0FD0514663
:10954000304600F0D3FDFB7D012B05D100230599AA
:10955000FB75204602F084F90223CBF8083023681B
:10956000069318F0800F44D0D7E909329A4240D8C8
:10957000A3EB0208FB69984528BF9846069B03F5B4
:10958000106308F1030803EB4A134FEA98080793A6
:10959000079B996989B24145D7E9093227D393429C
:1095A0000BD8069B0AF00F00D3F834280121814024
:1095B00022EA0102C3F834281BE0A3EB0209FB698D
:1095C000059A0698994528BF9946A3790093396A68
:1095D0001FFA89F300F072FF3B6A4B443B62BB6A9F
:1095E00009F103084B444FEA9808BB62D0E7934265
:1095F000D7D9049B5B080AF1010A049324370BF1C5
:10960000200B83E5204602F023F998E599601A685B
:1096100022F400121A60C3F80812D3F8002222F4D0
:109620000012C3F80022D3F8002242F00062C3F80F
:109630000022039A013203922033A7E50A30544FE7
:109640000A31544F6B6943F4005343F02B036B61B1
:109650002B6943F00B032B61AEE5B36923F0800364
:10966000B361012704F257284FF024092379BB4244
:109670007FF6E2AD09FB07F318F80330012B03D1A5
:10968000F9B22046FFF7C5FC0137EFE798F83C3008
:10969000D9F80020012B09D1002A07DA67F07F01F1
:1096A00088F83B30C9B22046FFF7B3FC013708F118
:1096B000240809F12009C8E50CF1010C24332031FC
:1096C000D8E500BF006870B5436A120419B91343A6
:1096D0008362002070BD846A4E1E03EB1443002495
:1096E000B44205D33F3100EB810013434360F0E700
:1096F00004F1400500EB850501346D6803EB15436B
:10970000EEE7036800205962704770472DE9F34186
:10971000044640B30368DE0710D423689D075BD47A
:109720002368190700F19D8023685A0700F1BD8066
:10973000A369002B40F0248100202CE08D4B9A6817
:1097400002F00C02042A07D09A6802F00C02082AE0
:109750000BD15B68590208D5864B1B689A03DCD590
:109760006368002BD9D1012015E06368814DB3F502
:10977000803F13D12B6843F480332B60FFF740F90F
:109780007C4E054633689B03C7D4FFF739F9401B6D
:109790006428F7D9032002B0BDE8F081B3F5A02F0B
:1097A00004D12B6843F480232B60E3E72A6822F47A
:1097B00080322A602A6822F480222A60002BDDD1C0
:1097C000FFF71EF906462B689F03A6D5FFF718F989
:1097D000801B6428F7D9DDE7664B9A6812F00C0FFE
:1097E00007D09A6802F00C02082A11D15B685D026A
:1097F0000ED4604A1368990702D5E368012BB2D1F1
:109800001368216923F0F80343EAC103136087E773
:10981000E268594BB2B101221A60FFF7F1F8554DD9
:1098200006462B689B0707D52B68226923F0F803AF
:1098300043EAC2032B6073E7FFF7E2F8801B0228BC
:10984000EFD9A7E71A60FFF7DBF84A4E0546336801
:109850009F077FF565AFFFF7D3F8401B0228F6D9C5
:1098600098E76269444B82B10122C3F8802EFFF76A
:10987000C7F8404E0546736F9B073FF555AFFFF79E
:10988000BFF8401B0228F6D984E7C3F8802EFFF703
:10989000B7F8384E0546736F9F077FF545AFFFF762
:1098A000AFF8401B0228F6D974E7324B1A6C12F05D
:1098B000805228D101921A6C42F080521A641B6CBB
:1098C00003F080530193019B01272C4D2B68D80591
:1098D0001BD5A368274D012B27D12B6F43F0010324
:1098E0002B67FFF78DF8234E054641F28838336F1A
:1098F0009A0739D5002F3FF41BAF1E4A136C23F093
:109900008053136414E70027DFE72B6843F4807368
:109910002B60FFF775F806462B68D905D9D4FFF7F9
:109920006FF8801B0228F7D934E7052B04D12B6F81
:1099300043F004032B67D0E72A6F22F001022A6765
:109940002A6F22F004022A67002BCAD1FFF758F8C9
:1099500041F2883806462B6F9B07CBD5FFF750F8AE
:10996000801B4045F7D915E7FFF74AF8401B4045F3
:10997000BDD90FE7003802400000474200700040A8
:10998000374DAA6802F00C02082A3ED0022B354B54
:109990004FF000021A662BD1FFF732F806462B680B
:1099A00099011FD4D4E907321343626A43EA821350
:1099B000E26A43EA0263A26A5208013A43EA0243B6
:1099C0006B60284B264D01221A66FFF719F80446F2
:1099D0002B689A013FF5B0AEFFF712F8001B022882
:1099E000F6D9D7E6FFF70CF8801B0228D7D9D1E6C5
:1099F000FFF706F804462B689B017FF59DAEFEF746
:109A0000FFFF001B0228F6D9C4E6012B3FF4ABAEE2
:109A10006B68E26903F4800191427FF4A4AE216A8D
:109A200003F03F028A427FF49EAE616A47F6C0723D
:109A30001A40B2EB811F7FF496AEA26A520803F47B
:109A40004031013AB1EB024F7FF48DAEE26A03F090
:109A50007063B3EB026F14BF012000209BE600BFD0
:109A60000038024000004742134908B58B6803F0F4
:109A70000C03042B1CD0082B1CD14A684B68496886
:109A800013F4800314BF0D480D48C1F3881118BFAB
:109A9000002302F03F02A1FB0001FEF7F9FB064B99
:109AA0005B68C3F3014301335B00B0FBF3F008BD17
:109AB0000248FCE70248FAE70038024040787D019E
:109AC0000024F4002DE9F0410D46044610B90120B0
:109AD000BDE8F081434B1A6802F007028A4228D39E
:109AE00021688F072DD4C80740D43E4B1A6802F076
:109AF0000702AA4265D8226851076BD4130707D51D
:109B0000394A2169936823F4604343EAC1039360AF
:109B1000FFF7AAFF344B354A9B68C3F30313D35CAA
:109B2000D840334B1860334B1868FEF71FFF0020F6
:109B3000CEE7CAB21A701B6803F007038B42C6D186
:109B4000CEE7294B11F0040F1EBF9A6842F4E05291
:109B50009A600E0742BF9A6842F460429A609A681F
:109B6000A06822F0F00202439A60BCE762681E4BD4
:109B7000012A1CD11B6813F4003FA8D01A4EB36809
:109B800023F003031343B360FEF73AFF41F2883832
:109B90000746B368626803F00C03B3EB820FA4D0EE
:109BA000FEF72EFFC01B4045F3D9032090E7911E1E
:109BB00001291B6802D813F0007FDEE713F0020FC3
:109BC000DBE7EAB21A701B6803F00703AB427FF4CD
:109BD0007EAF90E70449E0688B6823F4E0530343C9
:109BE0008B608BE7003C024000380240C8C9000887
:109BF0000000002008000020014B1868704700BFDB
:109C000000000020044B054A9B68C3F38223D35C09
:109C1000034A1068D840704700380240C0C90008A5
:109C200000000020044B054A9B68C3F34233D35C19
:109C3000034A1068D840704700380240C0C9000885
:109C400000000020026802F10C0353E8003F23F4F7
:109C500090730C3242E8003102680029F2D102F11F
:109C6000140353E8003F23F0010302F1140C4CE805
:109C700000310029F3D1036B012B0BD102F10C034E
:109C800053E8003F23F0100302F10C0C4CE80031C4
:109C90000029F3D1202380F842300023036370476A
:109CA0000268C16838B5136923F440530B4313614C
:109CB000054683680069D168034368690343E8691E
:109CC00021F4164121F00C0103430B43D360536987
:109CD000A96923F440730B4353611F4B9A4203D08D
:109CE00003F580639A4224D1FFF79CFFEA691921AA
:109CF000B2F5004FD5E90043A0FB01011CD1DA18F1
:109D00004FF0000545EB0503FEF7C2FA6422B0FBF5
:109D1000F2F102FB1103DB003233B3FBF2F303F089
:109D200007025B0002EB011203F4F8731344A36013
:109D300038BDFFF767FFD9E79A009B0FFEF7A8FA37
:109D40006422B0FBF2F102FB11031B013233B3FBBF
:109D5000F2F303EB0113EAE700100140F7B5054603
:109D60000C4617461E462A68136834EA030301D1DD
:109D7000002021E0701CF7D0FEF742FEC01B864297
:109D80001CD3DEB12B68DA685107ECD5802CEAD001
:109D9000402CE8D01A681207E5D5002401941A680F
:109DA00001925B6801932846019BFFF74BFF082354
:109DB0006B6485F84040012003B0F0BD0320FBE751
:109DC00010B5044648B390F8413003F0FF021BB9C8
:109DD00080F84020FEF76AFD2268242384F8413091
:109DE000D36823F40053D3602046FFF759FF23685C
:109DF0001A6922F490421A615A6922F02A025A61C1
:109E0000DA6842F40052DA6000202023606484F8AB
:109E1000413084F84230606310BD0120FCE72DE939
:109E2000F843984690F84130202B04460E461746DA
:109E30003FD100293FD0002A3DD021230025456491
:109E400080F84130FEF7DCFDA368A784B3F5805F9E
:109E50008146E78403D123690BB935461E46E38C5E
:109E60009BB253B943464A4640212046FFF776FF4E
:109E7000202350B984F841300AE043464A46802105
:109E80002046FFF76BFF28B1202384F841300320E0
:109E9000BDE8F88322684EB935F8023BC3F30803E6
:109EA0005360E18C013989B2E184D8E716F8013BAF
:109EB000F6E70220ECE70120EAE782B00023024641
:109EC0000193019B01330193019BB3F1706F1AD889
:109ED0001369002BF5DA0A230193019B83B91369F7
:109EE00043F001031361019B01330193019BB3F123
:109EF000706F08D8106910F00100F4D102B07047FB
:109F0000019B013BE8E70320F8E784B038B505ADD5
:109F100085E80E009DF81930012B044627D1836B8C
:109F200023F480338363C36823F4840323F0400362
:109F3000C360C36823F44013C3609DF82030012B35
:109F400002BFC36843F48013C360FFF7B6FF9DF8F8
:109F50001630012B07D1A36843F00603A360A36862
:109F600043F02003A360BDE8384004B07047C368E5
:109F700043F04003C360FFF7A0FF9DF81D3023B9F5
:109F8000A36B43F48033A363E1E7A36B23F4803333
:109F9000F9E70000022A4AD1274B284A0B44934292
:109FA00039D9274B274A0B44934236D9264AA1F583
:109FB0007403A3F51053934231D9244AA1F183735A
:109FC000A3F5E74393422CD3214B224A0B449342FF
:109FD00029D9214B214A0B44934226D3204B214AB5
:109FE0000B44934223D3204AA1F1B773A3F55853EE
:109FF00093421ED31D4B1E4A0B4493422CBF062393
:10A000000723C26822F47052C260C26842EA832306
:10A01000C360002070470F23F3E70E23F1E70D2301
:10A02000EFE70C23EDE70B23EBE70A23E9E709232E
:10A03000E7E70823E5E700BF405327FFFF340C00A4
:10A04000401E1BFF3F420F007F4F120020D613001F
:10A0500060B6E5FE5FE3160000D3CEFE40771B003E
:10A06000C05BB3FEC091210020753800E05459FE5A
:10A07000E09C4100836843F0010383600020704747
:10A08000836823F0010383600020704738B5C368FC
:10A09000012923F0C04305460C46C36014D1C368B0
:10A0A00043F00053C36000240A20FEF7AFFC6B6945
:10A0B000D90704F10A0402D4C82CF5D1C824A4F1AC
:10A0C000C8035842584138BD71B9C36843F0804352
:10A0D000C3600A20FEF79AFC6B69DA0704F10A04F0
:10A0E000EDD5C82CF5D1E9E70120ECE782B00023DB
:10A0F00002460193019B01330193019BB3F1706F01
:10A1000015D81369002BF5DA8901002341F02001ED
:10A1100001931161019B01330193019BB3F1706FB6
:10A1200005D8106910F02000F4D102B07047032068
:10A13000FBE782B0002302460193019B01330193A8
:10A14000019BB3F1706F13D81369002BF5DA00236C
:10A15000019310231361019B01330193019BB3F120
:10A16000706F05D8106910F01000F4D102B070477C
:10A170000320FBE7D0F800381943C0F8001800208E
:10A180007047000084B02DE9F843044609A880E830
:10A190000E0000239DF824609DF82E50194603F10F
:10A1A000400204EB820201330F2B5160F7D104F51A
:10A1B0000067002D6CD17B6843F002037B60A36BCA
:10A1C00043F40013A363A36B23F40023A363A36BE3
:10A1D00023F48023A3630023C4F8003E9DF82930B4
:10A1E000012B5FD19DF82710002959D12046FFF798
:10A1F000C1FF10212046FFF779FF01462046FFF7F7
:10A2000098FF0843C0B2002300383B6118BF01200B
:10A210007B6104F51062FB6119464FF0904C4FF0E2
:10A22000006E4FF67F389E423ED8002204F5306320
:10A2300011464FF0904C4FF0006E4FF67F3896422B
:10A2400045D83B6923F480733B610023A3616FF021
:10A25000804363619DF826301BB9A36943F0100366
:10A26000A361A269234B1343A3619DF82A301BB15C
:10A27000A36943F00803A361012D01BFA36943F063
:10A28000804343F00403A361BDE8F84304B0704782
:10A29000A36B23F40013A363A36B43F4002399E798
:10A2A0001946A3E70321A1E7D2F80090B9F1000F06
:10A2B0000BDA3BB9C2F800E011610133C2F8088043
:10A2C0002032B0E7C2F800C0F6E71160F4E7D3F837
:10A2D0000090B9F1000F0BDA3AB9C3F800E0196148
:10A2E0000132C3F808802033A9E7C3F800C0F6E7BD
:10A2F0001960F4E700383C80D0F8083813F0060005
:10A3000004D013F0020F14BF02200F20704730B5A5
:10A310000C78012204F00F05AA404D78012D00F5BC
:10A32000006300EB441019D1DD692A43DA61D0F8EB
:10A3300000391A0410D48A68D0F80059C2F30A030D
:10A340000A792B4343EA824343EA845343F0805320
:10A3500043F40043C0F80039002030BDDC6944EA12
:10A360000242DA61D0F8003B1B04F5D48B68D0F8C8
:10A37000002BC3F30A0313430A7943EA824343F0F1
:10A38000805343F40043C0F8003BE5E710B50A787A
:10A390004978012900EB421300F5006002F00F023A
:10A3A00022D1D3F8001900290BDAD3F8001941F0B3
:10A3B0000061C3F80019D3F8001941F08041C3F8D7
:10A3C0000019C46B012101FA02F224EA0204C463F9
:10A3D000C16921EA0202C261D3F80019144A0A4095
:10A3E000C3F80029002010BDD3F8001B00290BDAA8
:10A3F000D3F8001B41F00061C3F8001BD3F8001B29
:10A4000041F08041C3F8001BC46B4FF4803101FA66
:10A4100002F224EA0204C463C16921EA0202C261B1
:10A42000D3F8001B034A0A40C3F8002BDAE700BF49
:10A43000007833EC0078F3EF82B000234A78019380
:10A440000B78012A4FEA43131ED100F51060C118A2
:10A45000C258002A02DB002002B07047C25842F006
:10A460000062C250C25842F08042C25042F21072A2
:10A47000019B01330193019B934201D90120EBE73A
:10A480000B68002BF4DBE6E700F53060C118C2581A
:10A49000002AE0DAC25842F00062C250C25842F0CC
:10A4A0008042C25042F21072019B01330193019B22
:10A4B0009342E3D80B68002BF6DBCCE710B59DF890
:10A4C000084044B9033301329B0800EB023001EB32
:10A4D0008303994201D1002010BD51F8042B026082
:10A4E000F7E700002DE9F3414B780C690F79DFF8AD
:10A4F000F0E1DFF8F08116460A78012B00EB4215F7
:10A5000040F0978005F5106CDCF8103074BB03EA5E
:10A510000E03CCF81030DCF8103043F40023CCF8F4
:10A520001030DCF8103003EA0803012ECCF81030AC
:10A5300057D1CB690BB1CCF81430012F0CD1D0F826
:10A54000083813F4807FD5F800390CBF43F000536E
:10A5500043F08053C5F80039D5F8003943F004437F
:10A56000C5F80039002002B0BDE8F08103EA080315
:10A57000CCF81030DCF8103003EA0E03CCF81030C1
:10A580008B687AB9A34238BF0B61DCF8103043F412
:10A590000023CCF810300B69DCF81040C3F3120331
:10A5A0002343C2E71C44013CB4FBF3F44B4BDCF8FF
:10A5B00010E01FFA84F803EAC44444EA0E04012FB1
:10A5C000CCF81040E7D1DCF8103023F0C043CCF8D1
:10A5D0001030DCF810404FEA487303F0C0432343C7
:10A5E000D7E7D5F80039012F43F00443C5F8003907
:10A5F0000B690BD0002BB5D0D0F8341802F00F0245
:10A60000012393400B43C0F83438ABE7D0F8084837
:10A6100014F4807FD5F800490CBF44F0005444F096
:10A620008054C5F800490096C9689BB2FFF746FF01
:10A6300098E7D5F8103B03EA0803C5F8103BD5F8B6
:10A64000103B03EA0E0305F5306CCCF810308B6834
:10A650005ABB04B10B610B62DCF81020C3F3120388
:10A660001343CCF81030DCF8103043F40023012EF3
:10A67000CCF8103003D1CB680BB1CCF81430012FDB
:10A680000CD1D0F8083813F4807FD5F8003B0CBF0C
:10A6900043F0005343F08053C5F8003BD5F8003B2E
:10A6A00043F00443C5F8003B5CE7002CD4D01C44C5
:10A6B0000A4ADCF810E0013CB4FBF3F4A4B202EA6D
:10A6C000C442634342EA0E020B62CCF81020DCF86D
:10A6D0001020C3F312031343C9E700BF0000F81FA3
:10A6E000FFFF07E00000F8FF034670B50020940864
:10A6F00003F5805502F00302A04210D301EB840061
:10A7000062B103F580531C680023D90024FA01F1DB
:10A71000C154013399B28A42F7D1104470BD2E68FA
:10A7200041F820600130E7E74A780B78012A00EB16
:10A73000431012D1D0F80029002A06DB2BB1D0F843
:10A74000003923F08043C0F80039D0F8003943F4D1
:10A750000013C0F8003900207047D0F8002B002A01
:10A7600006DB2BB1D0F8003B23F08043C0F8003B60
:10A77000D0F8003B43F40013C0F8003BEBE70B7844
:10A780004A7800EB43100B79012AA3F10203DBB2F4
:10A790000FD1D0F80029012B22F40012C0F80029B3
:10A7A00005D8D0F8003943F08053C0F800390020B4
:10A7B0007047D0F8002B22F40012012BC0F8002BB8
:10A7C0009EBFD0F8003B43F08053C0F8003BEEE75B
:10A7D000D0F8003823F4FE63C0F80038D0F8003811
:10A7E000090101F4FE611943C0F800180020704708
:10A7F000D0F8003E23F00303C0F8003ED0F8043840
:10A8000023F00203C0F8043800207047D0F8003E5F
:10A8100023F00303C0F8003ED0F8043843F00203ED
:10A82000C0F80438002070474269806910407047C2
:10A83000D0F8183800F50060C0691840000C704767
:10A84000D0F8183800F50060C069184080B2704731
:10A8500000EB411100F50060D1F8082B4069104071
:10A860007047D0F81028D0F8343800EB411001F0D0
:10A870000F01CB4000F51060DB018068DBB21343B1
:10A8800018407047406900F001007047D0F8003967
:10A890006FF30A03C0F80039D0F8043843F480732A
:10A8A000C0F804380020704730B5056C104CA54244
:10A8B00000F5306303D9D0F8004B002C16DB0024E0
:10A8C0001C611C6944F400241C611C6944F01804D8
:10A8D0001C611C69012944F0C0441C6101BF5A611C
:10A8E000D0F8003B43F08023C0F8003B002030BD8F
:10A8F0000A30544FD0F8D43200EB830010B5D0F8B2
:10A90000C0428CB1D0F8C4321BB194F80002FF28C9
:10A9100001D1002010BD9B6894F801222146984780
:10A92000FF2384F80032F4E70320F3E70A230380CF
:10A93000004870478800002070B5822106460F4805
:10A9400000F06AFB012105460C4800F065FB8121FF
:10A9500004460A4800F060FB0DB11022AA711CB138
:10A96000402222710022627118B14022027100223D
:10A97000427143230148338070BD00BF0C000020AA
:10A98000FFF7DABF70B5822106460F4800F044FB9E
:10A99000012105460C4800F03FFB812104460A488E
:10A9A00000F03AFB0DB11022AA711CB100222271F5
:10A9B0000222627118B10022027102224271432305
:10A9C0000148338070BD00BF0C00002038B5D0F8BE
:10A9D000D432B033044650F823508DB100F08CFFD0
:10A9E000D4F8D432C5F80C0204EB8304D5F8040281
:10A9F000D4F8C43205F50371DB689847002038BDF0
:10AA00000320FCE7F8B5D0F8D462D0F8C87200EBA8
:10AA100086060A46D6F8C05225B301F00F0C14245E
:10AA200004FB0C0463697BB14FF0240E0EFB0C7722
:10AA3000FF69B3FBF7FC07FB1C332BB963611A46B4
:10AA400000F0A2FF0020F8BD0023C5F81432D6F8AC
:10AA5000C4321B69002BF5D0D5F8080205F5047146
:10AA60009847EFE70320EEE7D0F8D432F7B500EBD4
:10AA700083030022D3F8C0628DF8052004460D46FA
:10AA8000ADF80620002E65D091F800C01CF06002E1
:10AA900029D0202A5AD1CA884F78F2B11CF0800FF1
:10AAA0000ED0D3F8C43231469B6838469847EA88BE
:10AAB000072A28BF07223146204600F034FD09E06E
:10AAC000402A28BF402286F8007286F801223146CB
:10AAD00000F03FFD002003B0F0BDD3F8C43238468B
:10AAE0009B689847F6E74B780B2B2FD801A252F8BA
:10AAF00023F000BF25AB0008D5AA00084DAB000825
:10AB00004DAB00084DAB00084DAB00084DAB000845
:10AB10004DAB00084DAB00084DAB000835AB00084D
:10AB200045AB000890F89C32032B0FD102220DF1A7
:10AB30000601C1E790F89C32032B07D101220DF1E9
:10AB40000501B9E790F89C32032BC3D02946204673
:10AB500000F0C2FC0320BEE738B504460025812181
:10AB600000F0EEFE012184F83750204600F0E8FEA8
:10AB700084F877518221204600F0E2FED4F8D432E6
:10AB800084F84B5004EB83036564D3F8C0228AB188
:10AB9000D3F8C4325B689847D4F8D432B03354F851
:10ABA000230000F0B1FED4F8D432B03344F823507F
:10ABB000C4F8BC52002038BDF8B504464FF4077005
:10ABC00000F09EFE054630B9D4F8D432B03344F8D4
:10ABD0002300022046E04FF40772002101F0F0F854
:10ABE000D4F8D432B03344F82350237CC4F8BC5298
:10ABF000CBBB4FF4007381210222204600F094FE6B
:10AC0000012184F837104FF400730222204600F02F
:10AC10008BFE01261023032263648221082384F81B
:10AC20007761204600F080FED4F8D43284F84B607F
:10AC300004EB83030027D3F8C432C5F804721B6801
:10AC40009847D5F80422C5F81472C5F81872002A7E
:10AC5000BFD0237C93B94FF400733146204600F0F7
:10AC60009CFE0020F8BD402381210222204600F0F6
:10AC70005BFE012184F837104023C6E74023ECE750
:10AC800039B1D0F8D43200EB8300C0F8C4120020F0
:10AC9000704703207047D0F8D432B03350F82330D7
:10ACA0002BB1C3F80812C3F810220020704703200C
:10ACB0007047D0F8D432B03350F823301BB1C3F80A
:10ACC00004120020704703207047D0F8D422B0321D
:10ACD00008B550F8222062B1037CD2F8042233B9BF
:10ACE0004FF40073012100F058FE002008BD4023FE
:10ACF000F8E70320FAE778B10023C0F8B832C0F8CB
:10AD0000C432C0F8D03209B1C0F8B412012380F8BF
:10AD10009C32027000F0B0BD0320704713B50023D1
:10AD20000446ADF8063081B1CB6AC0F8B81223B141
:10AD30000DF106009847C4F8D002D4F8D832013398
:10AD4000C4F8D832002002B010BD0320FBE700F0A9
:10AD5000E2BDD0F8B8320BB11B68184718467047EF
:10AD600008B5D0F8B8325B689847002818BF0320B0
:10AD700008BD38B5044600F2AA25284600F0A1FB1C
:10AD8000012394F8AA12C4F89432B4F8B032C4F88B
:10AD9000983201F01F03012B08D0022B0CD08BB985
:10ADA00029462046BDE8384000F054B929462046DF
:10ADB000BDE8384000F0B2BA29462046BDE8384028
:10ADC00000F0DBBA204601F08001BDE8384000F019
:10ADD000C0BD70B5044639BBD0F89432032B12D1F4
:10ADE000D0F85831B0F8602193420ED9D0F86411F0
:10ADF0009B1A11449A42C0F85831C0F8641138BF08
:10AE00001A4600F0B7FB002070BD90F89C32032B6F
:10AE100006D1D0F8B8321B6913B1C0F8D4129847E4
:10AE2000204600F0AFFBEEE790F89C32032BEAD10E
:10AE3000D0F8B8329B69002BE5D00022BDE8704005
:10AE4000C0F8D422184770B504460D4600293FD1FA
:10AE5000D0F89432022B10D18269038C9A4214D913
:10AE6000416AD21A19448261416200F06AFB2B46A2
:10AE70002A462946204600F090FD94F8A03213B1EE
:10AE8000002384F8A032002070BD0CD143699A429F
:10AE900009D8D0F89822934205D20A4600F051FB17
:10AEA000C4F89852E3E794F89C32032B08D1D4F805
:10AEB000B832DB6823B10022C4F8D4222046984778
:10AEC0008021204600F045FD204600F066FBD4E7D7
:10AED00090F89C32032BD6D1D0F8B8325B69002BA6
:10AEE000D1D00022BDE87040C0F8D4221847F8B590
:10AEF000012380F89C32D0F8B83200210446C0F813
:10AF000094124160C0F8A41280F8A012BBB90026C8
:10AF100000224025114601274023204600F004FD71
:10AF200084F86371A4F860512B46002280212046EA
:10AF300000F0FAFC84F8237025843046F8BD5B6885
:10AF4000002BE4D098470028E1D00326E0E7017405
:10AF50000020704790F89C32042B1EBF90F89C3262
:10AF6000DBB280F89D32042380F89C3200207047C9
:10AF700090F89C32042B02BF90F89D32DBB280F82F
:10AF80009C320020704708B590F89C22032A05D116
:10AF9000D0F8B83213B1DB6903B19847002008BD7F
:10AFA000D0F8D422AE3208B550F822204AB190F839
:10AFB0009C32032B01D1136A0BB9002008BD9847BE
:10AFC000FBE70320FAE7D0F8D422AE3208B550F8F8
:10AFD00022204AB190F89C32032B01D1536A0BB95D
:10AFE000002008BD9847FBE70320FAE700207047E0
:10AFF000012208B580F89C22D0F8B8220AB90020B6
:10B0000008BD5268017990470028F8D00320F7E77F
:10B01000002070470020704710B5428803789A429C
:10B0200001D8002010BD0478204423444478052C26
:10B030009BB2F4D184788C42F1D1F3E710B5802132
:10B04000044600F086FC20460021BDE8104000F0D8
:10B0500080BC000073B50B7803F06003202B04461E
:10B060000D4609D0402B07D093B12046FFF7E6FFED
:10B070000025284602B070BDD4F8D432AE3329463C
:10B0800054F823309B68204602B0BDE87040184752
:10B090004B78092BE9D801A252F823F0BDB2000881
:10B0A00001B300086BB00008E5B200086BB00008FF
:10B0B000B7B10008C5B000086BB0000891B2000835
:10B0C000F9B100080023ADF806304B881A0A013A9E
:10B0D000062ACAD801A151F822F000BFF9B0000831
:10B0E0002BB1000845B100086BB000086BB0000838
:10B0F00089B100089FB10008D0F8B4321B68207CE9
:10B100000DF106019847EA88002A00F0A480BDF8F6
:10B110000630002BA9D09A4228BF1A46ADF8062067
:10B120000146204600F0FFF9A2E7027CD0F8B832D1
:10B1300032B99B6A0DF10600984702234370E2E79B
:10B14000DB6AF7E7DBB2052B8FD8DFE803F00309F2
:10B150000D111519D0F8B4325B68002BCFD184E7FC
:10B16000D0F8B4329B68F8E7D0F8B432DB68F4E783
:10B17000D0F8B4321B69F0E7D0F8B4325B69ECE781
:10B18000D0F8B4329B69E8E7037C002B7FF46DAF05
:10B19000D0F8B8320DF106005B6B9847B3E7037C3B
:10B1A000002B7FF462AFD0F8B8320DF106001B6BB4
:10B1B00098470723C2E78B88002B7FF456AFCB88D4
:10B1C000002B7FF452AF4D887F2D3FF64EAF90F8A5
:10B1D0009C32032B3FF449AFEDB280F89E522946D2
:10B1E00000F0C9FB204600F0CDF91DB1022384F820
:10B1F0009C323DE70123FAE78978474D0129297000
:10B2000003D9FFF71BFF032533E790F89C32022B8D
:10B21000DEB208D0032E17D0FFF710FF29782046A2
:10B22000FFF79EFDEFE7B1B101214160FFF791FD0E
:10B230000546204625B1FFF701FF84F89C6218E718
:10B2400000F0A0F90323D2E749B9022380F89C3229
:10B250004160FFF785FD204600F094F908E741685A
:10B260000129F8D0C9B2FFF77BFD2978616020463B
:10B27000FFF76FFD05460028EDD02046FFF7DEFE04
:10B2800021792046FFF76CFD022384F89C32F0E61A
:10B29000CA88012A7FF4E9AE90F89C120229CBB249
:10B2A00007D8002B3FF4E1AE0146002341F8083FE8
:10B2B00037E7032B7FF4D9AE011D32E790F89C32BB
:10B2C000013B022B3FF6D1AECA88022A7FF4CDAEF5
:10B2D000D0F8A4320146002B0CBF0123032341F810
:10B2E0000C3F1EE74B88012B02D1C4F8A432B2E711
:10B2F000022B7FF4BAAE8B881B0A80F8A032AAE733
:10B3000090F89C32013B022B3FF6AFAE4B88012BED
:10B310007FF4AEAE0023E8E7C001002070B50B78E3
:10B3200003F060025B0604460E4601D5402A1FD199
:10B3300094F89C32013B022B1AD83179012920461E
:10B3400017D8FFF765FE88B9D4F8B8329B686BB19F
:10B35000C4F8D4023146204698470546F3881BB905
:10B3600015B9204600F00EF9284670BD0325F5E713
:10B370002046FFF763FE0025F6E770B50B788A8854
:10B380000D7903F06003202B04460E4659D0402B64
:10B3900057D01BB12046FFF751FE3EE04B78012B02
:10B3A0003DD0032B26D0002BF4D190F89C32022BF9
:10B3B000D9B262D00329EDD105F00F0312F0800F4E
:10B3C0004FF0140202FB030367D093F82330002BE5
:10B3D000E0D005F07F06013606EB8606802D00EBF7
:10B3E000860666D02946204600F074FA002866D00A
:10B3F00001235FE090F89C32022BDAB233D0032AAB
:10B40000C8D14B8833B9690604D0F38813B92946EB
:10B4100000F09FFA204600F0B5F8002070BD90F8CB
:10B420009C32022BDAB21ED0032AB3D14B88002BF8
:10B43000F3D16B0602D0294600F094FA204600F0C2
:10B44000A1F829462046FFF7E5FD0028E5D1D4F80C
:10B45000B832C4F8D4029B68002BDED031462046B7
:10B46000BDE8704018476A0694D0294600F071FA8A
:10B470008021204600F06DFACFE769068AD11306D5
:10B480004CBF00F1140100F5AA71002301F80E3F32
:10B490000222204600F047F8BFE793F86331002B03
:10B4A0003FF478AF142606FB050606F5AA76002DB4
:10B4B00098D10023B373022206F10E01E9E7B073BD
:10B4C000F9E70B7803704B7843704B8843808B8887
:10B4D0008380CB88C380704710B58021044600F07C
:10B4E00038FA20460021BDE8104000F032BA70B5AD
:10B4F0000D461646044670B1FCF772FEC3B2013326
:10B500005B0033802B7003236B70013C022300210E
:10B5100014F8012F02B970BDEA545A1CD2B202339A
:10B52000A954DBB2F4E710B513460222C0F8942206
:10B5300043610A4641628361002100F025FA002040
:10B5400010BD08B513460A46002100F01DFA002080
:10B5500008BD10B513460322C0F89422C0F8543138
:10B560000A46C0F86411C0F85831002100F015FAFD
:10B57000002010BD08B513460A46002100F00DFA60
:10B58000002008BD08B504220023C0F89422194603
:10B590001A4600F0F9F9002008BD08B5052200237D
:10B5A000C0F8942219461A4600F0F7F9002008BDA9
:10B5B00008B50F490F480022FFF79DFB08B1FDF7C2
:10B5C000D5F80D490B48FFF7A9FB08B1FDF7CEF8F8
:10B5D0000A490848FFF754FB08B1FDF7C7F80548CA
:10B5E000FFF7B5FB18B1BDE80840FDF7BFB808BDCF
:10B5F000DC000020C4010020500000209400002046
:10B6000000207047002070470020704710B5054C9F
:10B6100001462046FFF74DFB2046FFF756FB002072
:10B6200010BD00BFC401002010B5064C0649002221
:10B630002046FFF730FB05492046FFF73AFB002084
:10B6400010BD00BFC4010020A0040020A00C0020F9
:10B65000122301480B807047C800002004230148D2
:10B660000B807047C4000020002370B54D1C1E469F
:10B67000040FB0F1204F34BF3034373401F8134099
:10B6800005F813600133DCB2A2424FEA0010EFD894
:10B6900070BD00001A2310B50B800A4BD3F8100AB6
:10B6A000D3F8182A80180AD0D3F8144A0649082279
:10B6B000FFF7DAFF042210312046FFF7D5FF0348D9
:10B6C00010BD00BF0070FF1FAA000020A8000020CE
:10B6D00010B5044C04480A462146FFF708FF2046EF
:10B6E00010BD00BFA01400204BC9000810B5044CC9
:10B6F00004480A462146FFF7FAFE204610BD00BF67
:10B70000A01400205EC9000810B5044C04480A4685
:10B710002146FFF7ECFE204610BD00BFA01400201C
:10B7200074C9000810B5044C04480A462146FFF7C6
:10B73000DEFE204610BD00BFA01400207FC9000817
:10B7400030B5044689B01422002103A800F038FB6C
:10B750002368B3F1A04F2ED1184C1948002501954C
:10B76000236B43F001032363236B03F00103019375
:10B770004FF4C052019B0223CDE9032303210A2386
:10B78000CDE9061303A9FDF7BBF9636B43F0800312
:10B7900063630295636C43F480436364636C03F4F6
:10B7A0008043029343202A462946029BFDF754F921
:10B7B0004320FDF783F909B030BD00BF00380240D7
:10B7C0000000024000F29C41D0F8E004FFF7D1BA3B
:10B7D000242303FB0103D0F8E004D3F86022FFF731
:10B7E000F8BA242303FB0103D0F8E0041A6AFFF738
:10B7F0002ABBD0F8E004FFF7C6BB10B5C379022B13
:10B80000044601D0FCF7B2FFD4F8E0040121FFF7B1
:10B810009EFBD4F8E004BDE81040FFF768BB0000D1
:10B8200010B50446D0F8E004FFF794FB2268D2F884
:10B83000003E43F00103C2F8003EE37A23B1034A1D
:10B84000136943F00603136110BD00BF00ED00E073
:10B85000D0F8E004FFF78CBBD0F8E004FFF7B3BBEF
:10B86000D0F8E004FFF79CBBD0F8E004FFF7BEBBC4
:10B87000D0F8E004FFF7BCBB08B50278034622BB52
:10B880001348C0F8E034C3F8C8024FF0A043036087
:10B89000042303714FF40073C38002234372428177
:10B8A0000273C281FDF700FA08B1FCF75FFF802147
:10B8B0000748FDF726FF402200210548FDF702FF5B
:10B8C000034880220121FDF7FDFE002008BD00BFD6
:10B8D000C018002011F0800FD0F8C8324FF02402B9
:10B8E0001BBF01F07F0102FB013302FB0133987D96
:10B8F00008BF93F856027047D0F8C802FDF7FABAAD
:10B9000000487047A0160020704718B102280CBFED
:10B9100001200320704708B5D0F8C802FDF733FABC
:10B92000BDE80840FFF7F1BF10B51446D0F8C802D3
:10B930001A462346FDF759FABDE81040FFF7E5BF68
:10B9400008B5D0F8C802FDF789FABDE80840FFF74E
:10B95000DCBF08B5D0F8C802FDF7EFFABDE8084033
:10B96000FFF7D3BF08B5D0F8C802FDF71DFBBDE84F
:10B970000840FFF7CABF08B5D0F8C802FDF722FAA1
:10B98000BDE80840FFF7C1BF08B5D0F8C802FDF711
:10B99000B9FABDE80840FFF7B8BF08B5D0F8C8024B
:10B9A000FDF78AFABDE80840FFF7AFBF002310B5E6
:10B9B0000446C0E90033C0E90433836081814366F3
:10B9C000C2818361194608225C3000F0F9F90D4B01
:10B9D00063620D4BA3620D4BE3620D4B23630D4B72
:10B9E00024629C4206D003F16802944202D0D03314
:10B9F0009C4205D104F15800BDE8104000F058BA4F
:10BA000010BD00BF11BC000833BC00086BBC0008AF
:10BA10008FBC0008A41D0020024A0349034800F01F
:10BA200069B800BFF80000204DC7000808010020D9
:10BA300041680C4B994210B5044601D000F086FED7
:10BA4000A168094B994202D0204600F07FFEE168D0
:10BA5000064B994204D02046BDE8104000F076BE67
:10BA600010BD00BFA41D00200C1E0020741E00206D
:10BA700010B50B4B0B4C0C4A1A60204600220421D7
:10BA8000FFF794FF04F1680001220921FFF78EFF00
:10BA900004F1D0000222BDE810401221FFF786BF5A
:10BAA000DC1E0020A41D002019BA0008014800F087
:10BAB00000BA00BFE51E0020014800F0FBB900BF3E
:10BAC000E51E002010B50446FFF7F0FF236A1BB106
:10BAD000BDE81040FFF7F0BF044B2362044B1B6826
:10BAE000002BF5D1FFF7C4FFF2E700BF31BA000821
:10BAF000DC1E00202DE9F843074688461446002640
:10BB0000D4E90195B9F1010905D52468002CF7D1D4
:10BB10003046BDE8F883AB89012B07D9B5F90E3063
:10BB2000013303D029463846C04706436835E9E764
:10BB30000FB407B5064904AB086853F8042B8168B5
:10BB4000019300F0DBFA03B05DF804EB04B070473A
:10BB500004010020036A70B5846805460E460BB9DF
:10BB6000FFF7B0FF636EDB0705D4A389980502D405
:10BB7000A06D00F09EF9A389190702D52369002B57
:10BB800035D12146284600F0C5F880B34FF0FF3587
:10BB9000636EDA0705D4A3899B0502D4A06D00F07B
:10BBA00089F9284670BD002B04DAA2699A4217DC95
:10BBB0000A2915D023685A1C22601970A36816F848
:10BBC000011F013BA3600029EDD1002B11DA2246B1
:10BBD0000A21284600F05FF80130D7D00A25D7E7C0
:10BBE0002246284600F057F80130E7D1CEE7013E63
:10BBF000E4E723685A1C22600A221A70EEE700006C
:10BC0000024B01461868FFF7A5BF00BF04010020E2
:10BC100010B50C46B1F90E1000F0FCF80028ABBFCF
:10BC2000636DA3891B1823F48053ACBF6365A381A4
:10BC300010BD2DE9F0411F468B89DB0505460C46FA
:10BC4000164605D5B1F90E100223002200F0D0F8F7
:10BC5000A389B4F90E1023F48053A38132463B46E6
:10BC60002846BDE8F04100F0E7B810B50C46B1F940
:10BC70000E1000F0BDF8431CA38915BF606523F4C6
:10BC8000805343F48053A38118BFA38110BDB1F941
:10BC90000E1000F09DB8F8B50E461446054618B1D2
:10BCA000036A0BB9FFF70EFFA369A360A3891A0704
:10BCB00001D5236943B92146284600F02BF818B175
:10BCC0004FF0FF373846F8BD23682269981A636938
:10BCD000F6B28342374605DC2146284600F036FDA1
:10BCE0000028EDD1A368013BA36023685A1C2260A1
:10BCF0001E706269431C9A4204D0A389DB07E1D518
:10BD00000A2EDFD12146284600F020FD0028D9D098
:10BD1000D6E7000038B5294B054618680C4618B11F
:10BD2000036A0BB9FFF7CEFEB4F90C30190722D421
:10BD3000DA0607D409222A6043F04003A3814FF0BA
:10BD4000FF3033E0580712D5616B41B104F1440371
:10BD5000994202D0284600F0AFF800236363A3891C
:10BD600023F02403A3810023636023692360A38954
:10BD700043F00803A38123694BB9A38903F420731B
:10BD8000B3F5007F03D02146284600F02DFDB4F91D
:10BD90000C3013F001020AD00022A2606269524204
:10BDA000A261226942B913F08000C5D138BD99075C
:10BDB00058BF6269A260F4E70020F7E704010020A1
:10BDC00002440346934200D1704703F8011BF9E790
:10BDD00038B5064D0023044608462B60FCF702FDEB
:10BDE000431C02D12B6803B1236038BDE01E002044
:10BDF00038B5074D04460846114600222A601A4607
:10BE0000FCF7FAFC431C02D12B6803B1236038BD58
:10BE1000E01E002038B5074D0446084611460022B2
:10BE20002A601A46FCF7D0FC431C02D12B6803B1F0
:10BE3000236038BDE01E002038B5074D0446084693
:10BE4000114600222A601A46FCF702FD431C02D16B
:10BE50002B6803B1236038BDE01E0020014B186839
:10BE6000704700BF0401002070B50D4D0D4C641BE0
:10BE7000A4100026A64209D10B4D0C4C00F022FD67
:10BE8000641BA4100026A64205D170BD55F8043BE2
:10BE900098470136EEE755F8043B98470136F2E73C
:10BEA000E0C90008E0C90008E0C90008E4C90008CA
:10BEB000704770477047000038B50546002941D0EB
:10BEC00051F8043C0C1F002BB8BFE41800F0E0F858
:10BED0001D4A136833B9636014602846BDE83840D2
:10BEE00000F0DCB8A34208D9206821188B4201BFBA
:10BEF00019685B6809182160EDE71A465B680BB1A9
:10BF0000A342FAD911685018A0420BD1206801440D
:10BF1000501883421160E0D118685B685360084490
:10BF20001060DAE702D90C232B60D6E720682118CD
:10BF30008B4204BF19685B68636004BF0918216005
:10BF40005460CAE738BD00BFEC1E002070B50F4E2C
:10BF50000C463168054611B900F0A4FC306021465A
:10BF6000284600F09FFC431C03D14FF0FF342046CD
:10BF700070BDC41C24F00304A042F8D0211A284646
:10BF800000F090FC0130F2D1EFE700BFE81E002086
:10BF90002DE9F843CD1C25F0030508350C2D38BFDD
:10BFA0000C25002D064601DBA94204D90C23336081
:10BFB0000020BDE8F883DFF8D48000F069F8D8F8F5
:10BFC00000301C4644BB29463046FFF7BFFF431CE8
:10BFD000044658D1D8F800402746002F43D1002C02
:10BFE0004BD023683946304604EB030900F05AFC75
:10BFF000814542D121686D1A29463046FFF7A6FFD8
:10C0000001303AD023682B442360D8F800305A68B6
:10C0100062BBC8F800700FE02268521B20D40B2AC4
:10C0200017D96119A342256018BF5960636808BF1A
:10C03000C8F8001062514B60304600F02FF804F150
:10C040000B00231D20F00700C21A1CBF1B1AA350AF
:10C05000AFE76268A3420CBFC8F800205A60EBE764
:10C0600023466468AEE73C467F68B6E71A465B68DD
:10C07000A342FBD100235360DEE70C23336030463C
:10C0800000F00CF894E70560D6E700BFEC1E002036
:10C090000148FFF70EBF00BFE41E00200148FFF774
:10C0A00009BF00BFE41E00209368013B002B10B4C1
:10C0B000936008DA9469A34201DB0A2903D15DF891
:10C0C000044BFFF7E8BD1368581C10601970084650
:10C0D0005DF8044B7047F8B506460F461446D51870
:10C0E000AC4201D1002007E014F8011B3A4630466B
:10C0F000FFF7DAFF431CF3D1F8BD00002DE9F04F44
:10C100000D469DB014469846064618B1036A0BB911
:10C11000FFF7D8FC6B6ED90705D4AB899A0502D41A
:10C12000A86DFFF7C6FEAB891B0701D52B699BB92C
:10C1300029463046FFF7EEFD70B16B6EDC0704D583
:10C140004FF0FF301DB0BDE8F08FAB899805F7D4F4
:10C15000A86DFFF7AFFEF3E70023099320238DF8C6
:10C160002930CDF80C803023DFF8AC818DF82A30EF
:10C170004FF0010923469A4613F8012B0AB1252AEC
:10C18000F9D1BAEB040B0BD05B4622462946304668
:10C19000FFF7A1FF013000F0A780099A5A440992E5
:10C1A0009AF80030002B00F09F8000234FF0FF3200
:10C1B000CDE905230AF1010A049307938DF8533062
:10C1C0001A935446052214F8011B5348FCF710F843
:10C1D000049AD8B9D10644BF20238DF853301307F1
:10C1E00044BF2B238DF853309AF800302A2B15D0FA
:10C1F000079A544600204FF00A0C214611F8013BE3
:10C20000303B092B4BD9B0B1079214E0A0EB0803E7
:10C2100009FA03F313430493A246D2E7039B191DC3
:10C220001B680391002BBBBF5B4242F002020793E5
:10C230000793B8BF049223782E2B0AD163782A2B58
:10C2400032D1039B1A1D1B68039243EAE373023445
:10C250000593DFF8D4A0217803225046FBF7C8FFEE
:10C2600038B1049BA0EB0A00402282401343013402
:10C27000049314F8011B29488DF828100622FBF7B7
:10C28000B7FF00283FD0264B1BBB039B073323F08F
:10C29000070308330393099B3B4409936AE70CFBAC
:10C2A00002320C460120A8E7002301340593194609
:10C2B0004FF00A0C204610F8012B303A092A03D916
:10C2C000002BC6D00591C4E70CFB012104460123D5
:10C2D000F0E703AB00932A46124B04A93046AFF3B4
:10C2E00000800746781CD6D16B6ED90705D4AB8980
:10C2F0009A0502D4A86DFFF7DDFDAB895B063FF51B
:10C300001FAF09981EE703AB00932A46054B04A90B
:10C31000304600F079F8E4E78DC9000897C90008B5
:10C3200000000000D7C0000893C900082DE9F047BD
:10C33000164698468A680B69DDF820909342B8BF8C
:10C340001346336091F8432007460C460AB1013387
:10C3500033602368990642BF33680233336025682F
:10C3600015F0060506D104F1190AE36832689B1A34
:10C37000AB4226DC94F843302268003B18BF01230F
:10C3800092062BD404F1430241463846C847013097
:10C390001ED02368226903F00603042B02BFE56860
:10C3A0003368ED1AA3680CBF25EAE57500259342B2
:10C3B000C4BF9B1AED1800261A34B5421AD10020CA
:10C3C00008E00123524641463846C847013003D1B0
:10C3D0004FF0FF30BDE8F0870135C6E7E1185A1C81
:10C3E000302081F84300224494F8451082F843102D
:10C3F0000233C7E70123224641463846C847013089
:10C40000E6D00136D9E700002DE9FF470F7E0C9EEC
:10C41000782F914680460C469A4601F1430207D890
:10C42000622F0AD8002F00F0D180582F00F0B8807A
:10C4300004F1420684F842703AE0A7F16303152B39
:10C44000F6D801A151F823F0A1C40008B5C4000832
:10C4500031C4000831C4000831C4000831C40008E8
:10C46000B5C4000831C4000831C4000831C4000854
:10C4700031C40008B3C50008DFC400086DC500085A
:10C4800031C4000831C40008D5C5000831C4000813
:10C49000DFC4000831C4000831C4000875C50008B5
:10C4A00033681A1D1B68326004F1420684F842307A
:10C4B00001239CE033682068191D3160060601D510
:10C4C0001D6803E04506FBD5B3F90050002D03DAE3
:10C4D0002D236D4284F8433058480A2311E0216827
:10C4E0003368080653F8045B02D4490648BFADB26E
:10C4F0006F2F5248336014BF0A230823002184F8A9
:10C5000043106668A660002E05DB21682E4321F0EB
:10C51000040121604BD01646B5FBF3F103FB115724
:10C52000C75D06F8017D2F46BB420D46F4D9082BA6
:10C530000BD12368DF0708D5236961689942DEBF04
:10C54000302306F8013C06F1FF36921B2261CDF83C
:10C5500000A04B4603AA21464046FFF7E7FE013004
:10C560004AD14FF0FF3004B0BDE8F087236843F0B4
:10C57000200323603248782784F8457023683168A7
:10C580001F0651F8045B02D45F0648BFADB23160AC
:10C59000D90744BF43F0200323601DB11023ADE74A
:10C5A0002648E9E7236823F020032360F6E71646D0
:10C5B000BDE7336825686169181D30602E061B6869
:10C5C00001D5196002E06806FBD5198000232361BC
:10C5D0001646BCE733681A1D32601E686268002187
:10C5E0003046FBF705FE08B1801B6060636823617D
:10C5F000002384F84330AAE723693246494640467F
:10C60000D0470130ADD023689B0713D4E068039B6B
:10C610009842B8BF1846A6E701233246494640462D
:10C62000D04701309DD00135E36803995B1AAB42D6
:10C63000F2DCEBE7002504F11906F5E79EC90008D6
:10C64000AFC90008B1F90C202DE9F04116070546E5
:10C650000C4654D44B68002B02DC0B6C002B48DDDD
:10C66000E66A002E45D0002312F480522F68216A1A
:10C670002B6030D0626DA389590705D56368D21A43
:10C68000636B0BB1236CD21A0023E66A216A284639
:10C69000B047431CA38906D129681D292BD82A4AF3
:10C6A000CA40D60727D500226260D90422692260D9
:10C6B00004D5421C01D12B6803B96065616B2F6002
:10C6C000B9B104F14403994202D02846FFF7F4FBC4
:10C6D000002363630DE001232846B0470246501C47
:10C6E000C9D12B68002BC6D01D2B01D0162B1ED113
:10C6F0002F60002022E043F040031BB21BE00F69D3
:10C70000002FF6D093070E6808BF4B690F6018BF63
:10C710000023A6EB07088B60B8F1000FE9DD216A62
:10C72000A66A43463A462846B047002808DCB4F9D2
:10C730000C3043F04003A3814FF0FF30BDE8F0819F
:10C740000744A8EB0008E7E70100402038B50B6973
:10C7500005460C4613B90025284638BD18B1036AB2
:10C760000BB9FFF7AFF9B4F90C30002BF3D0626EC0
:10C77000D00704D4990502D4A06DFFF79AFB284690
:10C780002146FFF75FFF636EDA070546E4D4A3890D
:10C790009B05E1D4A06DFFF78DFBDDE770B50C467E
:10C7A000B1F90E10002996B015461E460DDAA38980
:10C7B00013F0800F4FF0000114BF40234FF480634B
:10C7C000002031602B6016B070BD6A4600F048F85A
:10C7D0000028ECDB019901F47041A1F500535942A6
:10C7E00059414FF48063EBE78B89F7B59D07064607
:10C7F0000C4607D504F147032360236101236361DD
:10C8000003B0F0BD01AB6A46FFF7C8FF009F0546C5
:10C8100039463046FFF7BCFB48B9B4F90C309A05ED
:10C82000EED423F0030343F00203A381E2E7A389DC
:10C83000206043F08003A381019BC4E904075BB13E
:10C84000B4F90E10304600F01DF828B1A38923F08A
:10C85000030343F00103A381A3891D43A581CFE70F
:10C8600038B5074D00230446084611462B60FBF7F8
:10C87000BCFF431C02D12B6803B1236038BD00BF4D
:10C88000E01E002038B5064D0023044608462B6004
:10C89000FBF7B0FF431C02D12B6803B1236038BD06
:10C8A000E01E002038B5064D0023044608462B60E4
:10C8B000FBF7A4FF431C02D12B6803B1236038BDF2
:10C8C000E01E0020F8B500BFF8BC08BC9E467047CB
:0CC8D000F8B500BFF8BC08BC9E467047DD
:10C8DC000A2D2D2D2D2D2D2D2D2D2D2D2D2D2D2D9F
:10C8EC002D2D0A73746D33325F6170706C696361E6
:10C8FC0074696F6E0A2D2D2D2D2D2D2D2D2D2D2D79
:10C90C002D2D2D2D2D2D006170705F73702020202A
:10C91C00203A2030782530386C580A006170705FEE
:10C92C00656E747279203A2030782530386C580A4C
:10C93C00004170705F5469636B20256C750A00535D
:10C94C00544D6963726F656C656374726F6E696365
:10C95C00730053544D3332205669727475616C20D8
:10C96C00436F6D506F72740043444320436F6E6687
:10C97C0069670043444320496E7465726661636560
:10C98C0000232D302B2000686C4C006566674546F3
:10C99C00470030313233343536373839414243442D
:10C9AC0045460030313233343536373839616263BD
:10C9BC006465660000000000010203040000000032
:0CC9CC0000000000010203040607080937
:08C9D80008B8FF7F0100000018
:04C9E000C581000805
:04C9E400A181000825
:10C9E8000024F400010000001000000009024300C8
:10C9F800020100C0320904000001020201000524FE
:10CA08000010010524010001042402020524060087
:10CA1800010705820308001009040100020A00004A
:10CA280000070501024000000705810240000000E0
:10CA3800B9AB000859AB000869AA0008000000005B
:10CA4800F5A8000805AA0008CDA900080000000004
:10CA5800000000000000000085A9000839A90008AE
:10CA680081A900082DA900080A060002000000405C
:10CA78000100000029B6000801B6000805B6000844
:10CA88000DB6000809B600081A03000000000000EF
:10CA9800000000000000000000000000000000008E
:10CAA8000000000004030904120100020202004011
:10CAB80083044057000201020301000051B6000838
:10CAC8005DB60008D1B60008EDB6000895B60008B6
:10CAD80009B7000825B7000800000000030000009F
:10CAE800A41D00200801002000000000A41D002053
:10CAF8000C1E0020741E0020000000000000000032
:10CB0800000000000000000000000000000000001D
:10CB1800000000000000000000000000000000000D
:10CB280000000000000000000000000000000000FD
:04CB380000000000F9
:04000005080089194D
:00000001FF
