:020000040800F2
:10000000000002209D0C00080D0B00080F0B0008DB
:10001000110B0008130B0008150B0008000000006E
:10002000000000000000000000000000170B0008A6
:10003000190B0008000000001B0B00081D0B000836
:10004000ED0C0008ED0C0008ED0C0008ED0C0008AC
:10005000ED0C0008ED0C0008ED0C0008ED0C00089C
:10006000ED0C0008ED0C0008ED0C0008ED0C00088C
:10007000ED0C0008ED0C0008ED0C0008ED0C00087C
:10008000ED0C0008ED0C0008ED0C0008000000006D
:10009000000000000000000000000000ED0C00085F
:1000A000ED0C0008ED0C0008ED0C0008ED0C00084C
:1000B000ED0C0008ED0C0008ED0C0008ED0C00083C
:1000C000ED0C0008ED0C0008ED0C0008ED0C00082C
:1000D000ED0C0008ED0C0008ED0C0008000000001D
:1000E000ED0C0008ED0C0008ED0C0008000000000D
:1000F000000000000000000000000000ED0C0008FF
:1001000000000000ED0C0008ED0C0008ED0C0008EC
:1001100000000000000000000000000000000000DF
:10012000ED0C0008ED0C0008ED0C0008ED0C0008CB
:10013000ED0C0008000000000000000000000000BE
:10014000000000000000000000000000250B000877
:10015000ED0C0008ED0C0008ED0C0008ED0C00089B
:10016000ED0C0008ED0C000800000000000000008D
:10017000000000000000000000000000000000007F
:1001800000000000ED0C000800000000000000006E
:08019000ED0C0008ED0C000865
:1001A00010B5054C237833B9044B13B10448AFF3B1
:1001B00000800123237010BD4001002000000000DA
:1001C000A45D000808B5034B1BB103490348AFF316
:1001D000008008BD0000000044010020A45D00086C
:1001E00001F0FF01102A2BDB10F0070F08D010F8E8
:1001F000013B013A8B422DD010F0070F42B3F6D1EC
:10020000F0B441EA012141EA014122F007047FF004
:1002100000070023F0E80256083C85EA010586EA5B
:10022000010685FA47F5A3FA87F586FA47F6A5FA97
:1002300087F68EB9EED1F0BC01F0FF0102F00702A3
:1002400032B110F8013B013A83EA010313B1F8D14E
:100250000020704701387047002D06BF354603382F
:10026000073815F0010F07D1013015F4807F02BF68
:10027000013015F4C03F0130F0BC0138704700BFB9
:1002800053B94AB9002908BF00281CBF4FF0FF31FD
:100290004FF0FF3000F088B9ADF1080C6DE904CEE5
:1002A00000F006F8DDF804E0DDE9022304B0704751
:1002B0002DE9F047089D8E4604468846002B4AD11A
:1002C0008A42174662D9B2FA82F64EB1C6F12003CD
:1002D00001FA06F820FA03F3B74043EA0808B440ED
:1002E0004FEA174E1FFA87FCB8FBFEF1230C0EFBFA
:1002F000118843EA084301FB0CF29A4209D9FB1822
:1003000001F1FF3080F0EA809A4240F2E780023942
:100310003B449A1AA3B2B2FBFEF00EFB102243EA52
:10032000024300FB0CFC9C4509D9FB1800F1FF328D
:1003300080F0D6809C4540F2D3803B44023840EAAE
:100340000140A3EB0C0300211DB1F3400022C5E9DD
:100350000032BDE8F0878B4205D90DB1C5E9000137
:1003600000210846F5E7B3FA83F1002946D1734529
:1003700002D3824200F20581841A6EEB030201204F
:100380009046002DE5D0C5E90048E2E7002A00F0DC
:100390009080B2FA82F6002E40F0A4808A1A030CF4
:1003A0004FEA174E80B2BCB20121B2FBFEFC0EFB3D
:1003B0001C2243EA024304FB0CF29A4207D9FB18C1
:1003C0000CF1FF3802D29A4200F2E080C4469B1A38
:1003D000B3FBFEF20EFB123340EA034302FB04F4CC
:1003E0009C4207D9FB1802F1FF3002D29C4200F276
:1003F000CA8002461B1B42EA0C40A5E7C1F1200659
:100400008B4022FA06F71F430EFA01F420FA06F396
:100410002EFA06FE4FEA1749234300FA01F81FFAA5
:1004200087FCBEFBF9F01C0C09FB10EE44EA0E44FD
:1004300000FB0CFEA64502FA01F209D93C1900F1B5
:10044000FF3A80F09C80A64540F2998002383C44F7
:10045000A4EB0E041FFA83FEB4FBF9F309FB13446B
:100460004EEA044403FB0CFCA44508D93C1903F1F3
:10047000FF3E80F08280A4457FD9023B3C4443EAA2
:100480000040A4EB0C04A0FB02EC64457346E1467B
:1004900062D35FD05DB1B8EB030264EB090404FAE8
:1004A00006F622FA01F31E43CC40C5E900640021A0
:1004B0004FE7B1FBF2FC010C41EA0E4180B240EA89
:1004C00001423B4638463C46B846BE462026B1FB74
:1004D000F7F1A2EB080241EA0C4166E7014618E792
:1004E00010462CE7C6F120022EFA02F3B740B140C5
:1004F00020FA02F24FEA174E0A43B3FBFEF8BCB2F1
:100500000EFB1833110C41EA034108FB04F9B0401B
:1005100089454FEA104380B23ED9791808F1FF3C73
:1005200001D289451FD8A1EB0901B1FBFEF909FBF6
:1005300004F80EFB191192B242EA0142424529D257
:10054000BA1809F1FF31C4D24245C2D2A9F1020161
:100550003A44BEE7F0459DD2BEEB02036CEB070CBC
:100560000138E14696E7A7EB09094944A8F1020CD6
:10057000B1FBFEF909FB04F8DBE773467FE7504661
:1005800066E70846FDE63B44023A33E7ACF1020C6D
:100590003B441CE749469CE7A1EB0901C446B1FB7B
:1005A000FEF909FB04F8C4E7704700BF30B589B015
:1005B00000240394049405940694079400941D4B1E
:1005C0001A6B42F004021A631A6B02F004020092E2
:1005D000009A01941A6B42F080021A631A6B02F0BF
:1005E00080020192019A02941A6B42F001021A638E
:1005F0001B6B03F001030293029B0F4D01224FF48A
:100600000051284600F023FF4FF4005303931123B9
:1006100004930594069403A9284600F02DFE0123B7
:1006200003930494059303A9044800F025FE09B040
:1006300030BD00BF00380240000802400000024008
:10064000BFF34F8F0549CA6802F4E062044B1343BD
:10065000CB60BFF34F8F00BFFDE700BF00ED00E0B0
:100660000400FA0572B630BFFDE70000054B1B68B9
:10067000184400E000BF034B1B681B1A002BF9DB7A
:10068000704700BFAC0100204FF0005318600022FB
:100690005A6070472DE9F843444B1B68B3F1005F83
:1006A0000BD3424B1A68424B9A4212D83F4B1B68FD
:1006B00013F0030F0FD0002400E00024E4B23B4B02
:1006C0005A689A4209D35A683A4B9A4212D900257D
:1006D00004E00024F2E70124F0E70025EDB2334BFB
:1006E0005E6806F001063CB1002D52D0002E52D1BA
:1006F000002702E00125F1E70027FFB22E4804F0B1
:10070000EFFC2E4804F0ECFC2D4804F0E9FC4FF01F
:100710000058D8F800102B4804F07AFCD8F80410E0
:10072000294804F075FCDFF8C480404604F0D8FC8A
:10073000264804F0D5FCDFF87490D9F8001024485E
:1007400004F066FCD9F80410224804F061FC40462D
:1007500004F0C6FC204804F0C3FCF4B11F49204853
:1007600004F056FCDDB11D491E4804F051FCC6B131
:100770001A491D4804F04CFC1C4804F0B1FC97B128
:1007800016491B4804F044FC1A4804F0A9FCBDE8D3
:10079000F8830027B1E70127AFE71749DFE71649DC
:1007A000E2E71549E5E71449EBE700BF00800008E0
:1007B00000000220FFFF0708CC5D0008005E000873
:1007C000305E0008605E0008905E0008F05E000881
:1007D000205F0008505F0008805F0008BC5D0008D3
:1007E000B05F0008E05F000810600008C05E00080D
:1007F0004060000870600008C45D0008194B1B6869
:10080000B3F1005F0BD3174B1A68174B9A4212D8FB
:10081000144B1B6813F0030F0FD0002300E00023DC
:10082000DBB2104A5168914209D351680F4A914294
:1008300010D9002204E00023F2E70123F0E70022B0
:10084000D2B20849496801F001012BB132B139B97E
:10085000002070470122F3E7002070470020704716
:10086000012070470080000800000220FFFF0708F9
:1008700008B5054B1A6882F30888044A93605B68E0
:100880009847FFF7EFFE00BF0080000800ED00E092
:1008900008B54FF000531A68064B9A4200D008BDC5
:1008A0004FF000535B68002BF9D10020FFF7ECFEFE
:1008B000FFF7DEFFEFBEADDE4368CB1A026893425E
:1008C00001DA0020704741600120704700B583B015
:1008D0004FF47A7300930023019301E050230093B7
:1008E0000C4B19686846FFF7E7FF0028F8D04FF473
:1008F0000051094800F0B1FD084A13780133DBB21A
:100900001370032BEAD940F2DC5300931346002204
:100910001A70E5E7AC010020000802405C010020ED
:1009200008B54FF000531B68B3F1A53F03D14FF05A
:1009300000535B689BB101211A4800F081FD90B122
:10094000194804F0CDFBFFF759FF18BB4FF4FA70BC
:10095000FFF78CFE154804F0C3FBFFF7B7FF00203C
:10096000FFF792FE08BD124804F0BAFB01210D48C2
:1009700000F066FD18B90A20FFF778FEF6E732208E
:10098000FFF774FE0B4804F0ABFB4FF0A530FFF708
:100990007BFE02E00848FFF777FE0A20FFF766FEBD
:1009A000FFF74EFE00000240FC60000818610008DE
:1009B000A4600008D0600008EFBEADDE00B595B0C1
:1009C0003022002108A804F06BFC00230393049359
:1009D00005930693079301931F4A116C41F08051D0
:1009E0001164126C02F080520192019A02931B4B27
:1009F0001A6842F440421A601B6803F440430293B1
:100A0000029B012308934FF48033099302230E9332
:100A10004FF480020F9219221092C0221192129369
:100A20000423139308A801F041FB88B90F23039313
:100A300002230493002305934FF4805206920793F8
:100A4000032103A801F082FD20B915B05DF804FB75
:100A5000FFF73CFFFFF73AFF00380240007000400C
:100A600010B584B0FFF714FF00F068F9FFF7A6FF98
:100A7000FFF79CFD00F0BEF8FFF70CFEFFF750FFFC
:100A800003F03CFF64230293002303934FF47A7234
:100A9000009201930C4B1C68214602A8FFF70CFF43
:100AA00060B921466846FFF707FF0028F2D0009999
:100AB000B4FBF1F1054804F0ABFAEBE74FF4005159
:100AC000034800F0CAFCECE7AC01002048610008D4
:100AD0000008024082B0002100910B4B5A6C42F496
:100AE00080425A645A6C02F480420092009A01914A
:100AF0001A6C42F080521A641B6C03F0805301930D
:100B0000019B02B0704700BF00380240FEE7FEE7DD
:100B1000FEE7FEE7FEE770477047704708B500F054
:100B200027F908BD08B5024800F0B6FF08BD00BFB0
:100B3000D40B002070B50C461646002506E0AFF336
:100B40000080214601F8010B01350C46B542F6DB69
:100B5000304670BD4FF0FF3070474FF400534B608C
:100B600000207047012070470020704710B50346F1
:100B70000C4A0D490D48006840B10C480068034418
:100B8000521A934206D8094A136010BD0748084C10
:100B90000460F2E704F0D2FB0C2303604FF0FF3057
:100BA000F3E700BF00000220000400006001002005
:100BB00008120020034AD2F8883043F47003C2F8C8
:100BC0008830704700ED00E010B5013801280CD8DE
:100BD00014464FF0FF3392B2054801F0B6FE08B953
:100BE000204610BD4FF0FF34FAE74FF0FF34F7E72F
:100BF0006401002008B50A480A4B03604FF4E13352
:100C0000436000238360C36003610C2242618361FF
:100C1000C36101F06AFE00B908BDFFF757FEFBE7AC
:100C2000640100200010014000B589B00023039347
:100C30000493059306930793026803F1804303F539
:100C400088339A4202D009B05DF804FB002101917B
:100C500003F594335A6C42F010025A645A6C02F055
:100C600010020192019A02911A6B42F001021A637A
:100C70001B6B03F001030293029B4FF4C0630393C9
:100C800002230493032306930723079303A902482F
:100C900000F0F2FAD7E700BF00000240DFF834D0DE
:100CA000FFF788FF0C480D490D4A002302E0D45895
:100CB000C4500433C4188C42F9D30A4A0A4C0023A6
:100CC00001E013600432A242FBD304F03DFBFFF7C6
:100CD000C7FE7047000002200800002040010020ED
:100CE000486200084001002004120020FEE70000D6
:100CF00010B504460E4B1A784FF47A73B3FBF2F337
:100D00000C4A1068B0FBF3F000F0C0F868B90F2C83
:100D100001D901200AE0002221464FF0FF3000F007
:100D2000A1F8054B1C60002000E0012010BD00BFB1
:100D30000C000020080000201000002008B50B4B1C
:100D40001A6842F400721A601A6842F480621A60EB
:100D50001A6842F480721A60032000F071F80F20C4
:100D6000FFF7C6FFFFF7B6FE002008BD003C0240BB
:100D7000034A1168034B1B780B441360704700BF94
:100D8000AC0100200C000020014B1868704700BF28
:100D9000AC01002038B50446FFF7F6FF0546B4F174
:100DA000FF3F02D0044B1B781C44FFF7EDFF401BB4
:100DB000A042FAD338BD00BF0C000020002807DB9A
:100DC00000F01F02400901239340024A42F82030FC
:100DD000704700BF00E100E0002808DB0901C9B24C
:100DE00000F1604000F5614080F80013704700F0AA
:100DF0000F000901C9B2014B1954704714ED00E00E
:100E000000B500F00700C0F1070CBCF1040F28BFCB
:100E10004FF0040C031D062B0FD9C31E4FF0FF3EED
:100E20000EFA0CF021EA000199400EFA03FE22EAC4
:100E30000E0241EA02005DF804FB0023EEE7000029
:100E4000074AD36823F4E0631B041B0C000200F480
:100E5000E060034343F0BF6343F40033D360704763
:100E600000ED00E010B50446054BD868C0F3022041
:100E7000FFF7C6FF01462046FFF7AEFF10BD00BFDB
:100E800000ED00E008B5FFF799FF08BD0138B0F1AB
:100E9000807F0BD24FF0E0235861054AF02182F8A1
:100EA00023100020986107221A61704701207047C3
:100EB00000ED00E010B40A490C6924F440740C61A0
:100EC0000C6944F440740C610C6944F001040C6139
:100ED0000260BFF36F8F43605DF8044B704700BF43
:100EE000003C0240074B1A6922F440721A611A69E9
:100EF00042F400721A611A6942F001021A6101603B
:100F0000704700BF003C0240074B1A6922F4407250
:100F10001A611A6942F480721A611A6942F0010278
:100F20001A610180704700BF003C0240064B1A69FD
:100F300022F440721A611A691A611A6942F00102B8
:100F40001A610170704700BF003C0240274BDB680C
:100F500013F0100F07D0264AD36943F01003D36172
:100F6000224B1022DA60214BDB6813F0200F07D0F0
:100F70001F4AD36943F00803D3611C4B2022DA6077
:100F80001A4BDB6813F0400F07D0194AD36943F0BE
:100F90000403D361154B4022DA60144BDB6813F075
:100FA000800F07D0124AD36943F00203D3610F4B7D
:100FB0008022DA600D4BDB6813F4807F08D00C4A86
:100FC000D36943F00103D361084B4FF48072DA60B8
:100FD000064BDB6813F0020F07D0054AD36943F0D4
:100FE0002003D361014B0222DA607047003C0240CB
:100FF000B0010020094B1B69002B01DB002070476A
:10100000064B074A5A6002F188325A601B69002B6E
:1010100001DB002070470120704700BF003C024008
:1010200023016745034A136943F00043136100201D
:10103000704700BF003C024038B50446144B002204
:10104000DA61FFF7A1FE0546124BDB6813F4803F1F
:101050000AD0B4F1FF3FF7D024B1FFF795FE401B53
:10106000A042F1D903200DE00A4BDB6813F0010F19
:1010700002D0084B0122DA60064BDB6813F4F97FDB
:1010800001D1002038BDFFF761FF0120FAE700BF62
:10109000B0010020003C0240F8B516461B4A127E03
:1010A000012A30D004460D461F46184B01221A76FD
:1010B0004CF25030FFF7C0FF90B9ACB1012C18D002
:1010C000022C1BD032463B462846FFF7F3FE4CF27B
:1010D0005030FFF7B1FF0E4A136923F0010313618B
:1010E0000A4B00221A76F8BDF1B22846FFF71EFF20
:1010F000EDE7B1B22846FFF707FFE8E7314628469B
:10110000FFF7F0FEE3E70220EDE700BFB0010020AB
:10111000003C0240074B1A6922F440721A611A69B6
:1011200042F004021A611A6942EA002242F4803253
:101130001A617047003C0240012905D0022906D0FF
:1011400039B14FF4407104E04FF4807101E04FF485
:1011500000710B4B1A6922F440721A611A690A4332
:101160001A611A6922F0F8021A611A6942EAC0008B
:1011700040F0020018611A6942F480321A61704727
:10118000003C0240164B1B6813F4007F10D0144B38
:101190001A6822F400721A601A6842F400621A6037
:1011A0001A6822F400621A601A6842F400721A6027
:1011B0000B4B1B6813F4806F10D0094B1A6822F494
:1011C00080621A601A6842F480521A601A6822F427
:1011D00080521A601A6842F480621A60704700BF39
:1011E000003C0240F8B5224B1B7E012B3ED004464A
:1011F0000E461F4B01221A764CF25030FFF71CFFAF
:10120000074670BB4FF0FF3333602368012B16D0C5
:10121000A568E368A2681344AB4220D9217C284624
:10122000FFF78AFF4CF25030FFF706FF114A1369AF
:1012300023F0FA031361074680B90135E9E76168D5
:10124000207CFFF767FF4CF25030FFF7F5FE0746B2
:10125000084A136923F00403136100E03560FFF7C7
:1012600091FF034B00221A763846F8BD0227FBE7B0
:10127000B0010020003C024000230F2B00F2D78079
:1012800070B582B065E085684FEA430E032404FA26
:101290000EF425EA0405CC6804FA0EF42C438460AD
:1012A000446824EA02044A68C2F300129A402243C6
:1012B00042605CE0DC08083450F8242003F00705A5
:1012C000AD004FF00F0E0EFA05FE22EA0E0E0A696F
:1012D000AA4042EA0E0240F824205CE0042200E02A
:1012E000002202FA0EF22A430234514D45F824201E
:1012F000504A94686FEA0C0224EA0C054E6816F412
:10130000801F01D04CEA04054A4CA560E46802EA5B
:1013100004054E6816F4001F01D04CEA0405454C44
:10132000E560646802EA04054E6816F4003F01D0E7
:101330004CEA04053F4C6560246822404D6815F472
:10134000803F01D04CEA04023A4C226001330F2B5B
:101350006BD801229A400C6804EA020C32EA0404B9
:10136000F4D14C6804F00304013C012C8BD94A6889
:1013700002F00302032A09D0C4685D000322AA40D8
:1013800024EA02048A68AA402243C2604A6802F042
:101390000302022A8ED004684FEA430E032202FAA7
:1013A0000EF224EA02044A6802F0030202FA0EF284
:1013B000224302604A6812F4403FC7D000220192E3
:1013C0001D4A546C44F480445464526C02F48042CC
:1013D0000192019A9C08A51C154A52F8255003F069
:1013E000030E4FEA8E0E0F2202FA0EF225EA0205D4
:1013F000124A90423FF474AF02F5806290420ED0E0
:1014000002F5806290420CD002F5806290420AD0D0
:1014100002F5806290423FF461AF072261E701224A
:101420005FE702225DE703225BE702B070BD704711
:1014300000380140003C01400038024000000240FA
:101440000369194201D001207047002070470AB19A
:1014500081617047090481617047436901EA0302B1
:1014600021EA030141EA0241816170472DE9F0431D
:1014700083B0D0F8008001EBC10300EB83039A6ACC
:101480005B6A9A4254D807460C469B1A01EBC1028C
:1014900000EB8202D2699A4200D31A4602F1030994
:1014A0004FEA990915E006F103094FEA9909BB795A
:1014B00004EBC40507EB8505296A0093B3B2E2B2D9
:1014C000404601F072FD2B6A33442B62AB6A334411
:1014D000AB6208EB441303F510639B699BB24B4569
:1014E00012D304EBC40307EB83039A6A5B6A9A4244
:1014F0000AD24BB19B1A04EBC40207EB8202D669F5
:101500009E42D0D31E46CEE704EBC40307EB83070D
:101510007A6ABB6A9A420FD804F00F040122A240F3
:10152000D8F8343823EA0203C8F83438002000E041
:10153000012003B0BDE8F0830020FAE730B583B0A6
:1015400000287AD00446056890F89534C3B1032387
:1015500084F89534B5F1A04F17D0206801F048FB0E
:10156000237C8DF80030231D0ECB206801F07FFA1C
:1015700070B1022384F895340125284603B030BDAC
:1015800080F8943403F036FBE1E70023A371E4E72D
:101590000021206801F01FFF024608B9034617E04A
:1015A000022384F895340125E7E703EBC30104EB3C
:1015B0008101012048750B75CB8500200876C86134
:1015C000086203EBC30104EB810148620133DBB223
:1015D00020799842E9D816E002EBC20304EB8303BA
:1015E000002183F8551283F8542283F85812C3F867
:1015F0005C12C3F8601202EBC20304EB8303C3F86E
:1016000064120132D2B29042E6D8237C8DF80030C9
:10161000231D0ECB206801F041FB054620B10223BB
:1016200084F895340125A8E700236374012384F826
:101630009534206801F08EFE9FE701259DE7036841
:1016400090F89424012A1AD010B50446012280F89B
:101650009424DA6812F0400F02D0427B012A09D0AC
:10166000206801F0BFFA206801F066FE002084F8CF
:10167000940410BD9A6B42F480329A63F0E7022022
:10168000704738B5056890F89434012B1DD0044696
:10169000012380F89434284601F0AAFA206801F06A
:1016A00059FE1021206801F0A9FAEB6813F0400FF1
:1016B00002D0637B012B03D0002084F8940438BD52
:1016C000AB6B23F48033AB63F6E70220F7E700004F
:1016D00070B504460D460068066C00EB411303F537
:1016E00030639A68A179012911D038498E4256D0C9
:1016F0003DB905EBC50304EB8303D3F86432002B3B
:101700005ED0E9B2204603F0BFFA002070BD12F0AF
:10171000080F09D02E498E42F7D912F4004FF4D0A9
:101720004FF400429A60F0E712F0200F02D020221E
:101730009A60EAE712F0280FE7D125498E4206D9D0
:1017400012F4004F03D04FF400429A60DDE705EB3E
:10175000C50204EB8202D2F874121B69C3F31203B0
:10176000CB1AC2F868327DB905EBC50204EB8202E0
:10177000D2F864226AB105EBC50204EB8202D2F80A
:1017800060121944C2F86012E9B2204603F07CFAF4
:10179000BBE704F29C42012101F05CFEF4E712F485
:1017A000004F03D04FF400429A60AEE712F0200FD2
:1017B00001D020229A60E9B2204603F065FAA4E73E
:1017C00004F29C42002101F045FE9AE70A31544F91
:1017D0000A30544F38B5044603681D6C03EB4113BF
:1017E000D3F8081B0E4A954207D903F5306311F46C
:1017F000004F02D04FF400429A60204603F03CFABA
:10180000074B9D4202D9A379012B01D0002038BD9E
:1018100004F29C420121206801F01CFEF6E700BFA3
:101820000A30544F90F89434012B0CD010B5044674
:10183000012380F894344174006801F06DFD0020AC
:1018400084F8940410BD0220704738B505468C46D4
:1018500011F0800F2BD101F00F0E0EEBCE04A4007F
:1018600004F514740444211D0EEBCE0E00EB8E0E15
:1018700000208EF855020CF00F0C81F800C0C2F366
:101880000A028A600B714A780AB1A1F81AC0022BC9
:101890001CD095F89434012B1BD0012385F8943487
:1018A000286801F0D6FA002085F8940438BD01F0CC
:1018B0000F0000EBC001890010312944043100EB16
:1018C000C00005EB800001244475D4E700234B7170
:1018D000DFE70220EAE710B5144601F00F0C0CEB2D
:1018E000CC01890001F51471014404310CEBCC0EDC
:1018F00000EB8E0ECEF86022CEF864320023CEF8D4
:1019000068328EF855328EF854C28279012A04D09A
:10191000006801F061FB002010BDCEF87042F7E7CF
:1019200010B5144601F00F0C0CEBCC0189001031FE
:10193000014404310CEBCC0E00EB8E0ECEF82020CF
:10194000CEF824300023CEF8283001238EF815304D
:101950008EF814C082799A4204D0006801F03CFBF2
:10196000002010BDCEF83040F7E738B501F00F0584
:101970000279AA4238D304460B4611F0800F1FD1DA
:1019800001EBC101890001F514710144043103EB3D
:10199000C30300EB8303002283F8552201238B70DD
:1019A0000D7094F89434012B20D0012384F89434E2
:1019B000206801F056FC85B1002084F8940438BDFD
:1019C00005EBC501890010310144043105EBC50365
:1019D00000EB830301225A75E0E704F29C42A179EF
:1019E000206801F037FDE7E70120E8E70220E6E79D
:1019F00001F00F0302799A4230D310B5044611F07A
:101A0000800F1ED103EBC301890001F5147101445D
:101A1000043103EBC30200EB8202002082F855027E
:101A200000228A700B7094F89434012B18D0012393
:101A300084F89434206801F041FC002084F8940478
:101A400010BD03EBC301890010310144043103EBE5
:101A5000C30200EB820201205075E1E701207047CC
:101A60000220EDE708B511F0800F0CD101F00F0155
:101A700001EBC101890001F51471014404310068D2
:101A800001F034FA08BD01F00F0101EBC10189003A
:101A9000103101440431F2E72DE9F04F83B00446E0
:101AA0000568284601F093FC10B103B0BDE8F08F43
:101AB0000646206801F05CFC0028F6D005F50067BA
:101AC000BB68C3F30D23C4F8D434206801F050FC84
:101AD00010F0020F04D02268536903F0020353612F
:101AE000206801F045FC10F0100F15D022689369B2
:101AF00023F010039361D5F8208008F00F0908F453
:101B0000F013B3F5802F4CD0B3F5402F6FD022687F
:101B1000936943F010039361206801F029FC10F4ED
:101B2000002F76D1206801F023FC10F4802F40F0C4
:101B3000E080206801F01CFC0028C0F26181206870
:101B400001F016FC10F4006F09D0BB6813F0010F10
:101B500040F06E812268536903F40063536120688A
:101B600001F006FC10F4805F40F06681206801F00F
:101B7000FFFB10F4005F40F0B381206801F0F8FB38
:101B800010F0080F40F0C481206801F0F1FB10F064
:101B9000800F00F0D781AB6923F08003AB61012691
:101BA000C0E147F6F07318EA030FB0D04FEA181AF5
:101BB0004FEAC903019309EBC90B04EB8B0BC8F384
:101BC0000A12DBF86012284601F028FBDBF86032CD
:101BD000CAF30A0A5344CBF86032DBF86832019A40
:101BE0004A4404EB82025344C2F868328FE7082269
:101BF00004F29C41284601F011FB09EBC90304EBF8
:101C00008303D3F86822C8F30A184244C3F8682251
:101C10007DE7206801F0B0FB8046B14635E005EB7A
:101C200049130122C3F8082B49462046FFF750FD0F
:101C30003CE005EB49130822C3F8082B494620462F
:101C4000FFF7C8FD35E009EBC90304EB830393F804
:101C50005732012B41D005EB49130222C3F8082B60
:101C60001AF0200F04D005EB49132022C3F8082BEB
:101C70001AF4005F05D005EB49134FF40052C3F886
:101C8000082B09F101094FEA5808B8F1000F3FF499
:101C900049AF18F0010FF4D05FFA89FB594620686C
:101CA00001F07AFB824610F0010FB8D11AF0080F4C
:101CB000BFD11AF0100F04D005EB49131022C3F85E
:101CC000082B1AF0020FCBD06B6913F0800FBAD03B
:101CD0007B6843F480637B60B5E709EBC90304EBE1
:101CE0008303002283F857225946204603F01AF84E
:101CF000B1E7206801F048FB8046B14625E059462F
:101D0000204602F0CDFF1AF0080F04D005EB49136E
:101D10000822C3F808291AF0100F04D005EB491364
:101D20001022C3F808291AF0400F04D005EB49131C
:101D30004022C3F808291AF0020F40D11AF0800F90
:101D400059D109F101094FEA5808B8F1000F3FF4E1
:101D5000F0AE18F0010FF4D05FFA89FB5946206805
:101D600001F023FB824610F0010FCCD009F00F02E6
:101D7000012101FA02F27B6B23EA02037B6305EB8C
:101D80004913C3F80819A3798B42B8D109EBC903E9
:101D900004EB83031A6AD9690A441A62B9F1000F85
:101DA000ADD109EBC90304EB83035B6A002BA6D119
:101DB00004F29C420121206801F04CFB9FE7494658
:101DC000284600F01BFF09EBC90304EB8303DB7D0E
:101DD000012B05D005EB49130222C3F80829ADE712
:101DE00009EBC90304EB83030022DA755946204648
:101DF00002F09EFFEEE749462046FFF737FBA0E7DB
:101E00007B6823F001037B6094F8CC34012B08D06D
:101E1000204602F081FF2268536903F000435361BA
:101E20008DE6002184F8CC14204600F03EF9F2E75C
:101E3000204602F059FF8DE67B6823F001037B60AA
:101E40001021206800F0DAFE1AE005EB46134FF689
:101E50007F31C3F80819D3F8002922F40012C3F81F
:101E60000029C3F8081BD3F8002B22F40012C3F892
:101E7000002BD3F8002B42F00062C3F8002B013690
:101E80002379B342E1D8FB6943F00113FB61E37BA3
:101E9000DBB1D7F8843043F00B03C7F884307B6C98
:101EA00043F00B037B64D5F8003823F4FE63C5F8D8
:101EB000003804F29C42A179206801F0CBFA226834
:101EC000536903F48053536150E67B6943F4005334
:101ED00043F02B037B613B6943F00B033B61E2E77B
:101EE000206801F0A9FA206800F0A2FFE0712668DE
:101EF00000F0DCFB0146E279304600F001FE2046AE
:101F000002F0DFFE2268536903F40053536134E6A4
:101F1000204602F0D0FE2268536903F008035361A3
:101F200032E601362379B3420CD906EBC60304EB43
:101F3000830393F85732012BF3D1F1B22046FFF718
:101F400091FDEEE7206801F013FA10F4801F25D10F
:101F5000206801F00DFA10F4001F58D0012326E08C
:101F600001362379B3421BD905EB4613D3F8002978
:101F700006EBC60304EB83031B7E012BF0D1002A82
:101F8000EEDA06EBC60304EB83030122DA7566F092
:101F90007F01C9B22046FFF765FDE1E70126E0E7D2
:101FA0002268536903F480135361D1E70133227926
:101FB0009A4227D905EB4312D2F8001B03EBC30268
:101FC00004EB820292F85822012AEFD10029EDDABF
:101FD000D4F8D42482EA114212F0010FE6D103EBC7
:101FE000C30204EB8202012182F85712AA6942F06F
:101FF0008002AA616A6912F0800FD7D17B6843F42E
:1020000000737B602268536903F4001353612068F6
:1020100001F0AEF910F0804F10D1206801F0A8F95E
:1020200010F0040F3FF441AD23685D6815F0040F14
:102030000DD1226853682B43536036E5204602F0E9
:102040007DFE2268536903F080435361E5E7204633
:1020500002F07AFEEDE710B40468606A31B940EA34
:102060000240A06200205DF8044B70478C46A36AD2
:1020700000EB1340002308E003F1400104EB810171
:10208000496800EB11400133DBB20CF1FF318B42A8
:10209000F2D340EA02400CF13F0104EB810460609E
:1020A000E0E703685962002070477047002800F09D
:1020B000E08170B582B00446036813F0010F3BD095
:1020C0009F4B9B6803F00C03042B2CD09C4B9B680C
:1020D00003F00C03082B21D06368B3F5803F4FD089
:1020E000B3F5A02F52D0964B1A6822F480321A60B2
:1020F0001A6822F480221A606368002B50D0FEF721
:1021000043FE05468E4B1B6813F4003F14D1FEF7C7
:102110003BFE401B6428F5D90320B1E1884B5B6886
:1021200013F4800FD8D0864B1B6813F4003F03D004
:102130006368002B00F09F81236813F0020F54D0D6
:102140007F4B9B6813F00C0F3ED07D4B9B6803F0D8
:102150000C03082B33D0E368002B68D0794B0122A5
:102160001A60FEF711FE0546754B1B6813F0020F4F
:1021700054D1FEF709FE401B0228F5D903207FE168
:102180006F4A136843F480331360B5E76C4B1A68E9
:1021900042F480221A601A6842F480321A60ABE777
:1021A000FEF7F2FD0546664B1B6813F4003FC3D0F3
:1021B000FEF7EAFD401B6428F5D9032060E1604B7F
:1021C0005B6813F4800FC6D15D4B1B6813F0020FE0
:1021D00003D0E368012B40F05081594A136823F083
:1021E000F803216943EAC1031360236813F0080F61
:1021F00042D063696BB3534B0122C3F8802EFEF7C4
:10220000C3FD05464E4B5B6F13F0020F34D1FEF752
:10221000BBFD401B0228F5D9032031E1484A136871
:1022200023F0F803216943EAC1031360DDE7454B5E
:1022300000221A60FEF7A8FD0546414B1B6813F00B
:10224000020FD2D0FEF7A0FD401B0228F5D90320D3
:1022500016E13C4B0022C3F8802EFEF795FD0546A3
:10226000374B5B6F13F0020F06D0FEF78DFD401B5E
:102270000228F5D9032003E1236813F0040F77D077
:102280002F4B1B6C13F0805F33D1002301932C4B39
:102290001A6C42F080521A641B6C03F08053019355
:1022A000019B0125284B1B6813F4807F23D0A36872
:1022B000012B34D0052B38D0214B1A6F22F00102AC
:1022C0001A671A6F22F004021A67A368002B3DD028
:1022D000FEF75AFD06461A4B1B6F13F0020F46D14C
:1022E000FEF752FD801B41F288339842F3D9032058
:1022F000C6E00025D6E7144A136843F480731360E0
:10230000FEF742FD0646104B1B6813F4807FCED1CA
:10231000FEF73AFD801B0228F5D90320B0E0084AF9
:10232000136F43F001031367CFE7054B1A6F42F0B9
:1023300004021A671A6F42F001021A67C5E700BF6C
:10234000003802400000474200700040FEF71CFDCC
:102350000646524B1B6F13F0020F08D0FEF714FD18
:10236000801B41F288339842F3D9032088E0EDB90D
:10237000A369002B00F08380484A926802F00C02A7
:10238000082A51D0022B17D0454B00221A66FEF7BF
:10239000FBFC0446414B1B6813F0007F42D0FEF764
:1023A000F3FC001B0228F5D9032069E03B4A136CBB
:1023B00023F080531364DBE7394B00221A66FEF7E3
:1023C000E3FC0546354B1B6813F0007F06D0FEF793
:1023D000DBFC401B0228F5D9032051E0E369226AA7
:1023E0001343626A43EA8213A26A5208013A43EA3B
:1023F0000243E26A43EA0263284A5360284B0122FF
:102400001A66FEF7C1FC0446244B1B6813F0007FDC
:1024100006D1FEF7B9FC001B0228F5D903202FE0F6
:1024200000202DE000202BE0012B2BD01B4B5B6804
:1024300003F48001E269914226D103F03F02216A50
:102440008A4223D1616A47F6C0721A40B2EB811FFB
:102450001ED103F44031A26A5208013AB1EB024F97
:1024600018D103F07063E26AB3EB026F14D100205D
:1024700006E001207047012002E0012000E000207A
:1024800002B070BD0120FBE70120F9E70120F7E76A
:102490000120F5E70120F3E70120F1E700380240D1
:1024A0000000474208B5264B9B6803F00C03042B41
:1024B00041D0082B41D1224B5A6802F03F025B68A1
:1024C00013F4800F12D01E4B5968C1F388111D48B8
:1024D0000023A1FB0001FDF7D3FE194B5B68C3F39A
:1024E000014301335B00B0FBF3F008BD144B5868A7
:1024F000C0F388104FEA401CBCEB000C6EEB0E0ED4
:102500004FEA8E1343EA9C634FEA8C11B1EB0C0146
:1025100063EB0E03DB0043EA5173C90011EB000CBF
:1025200043F10003990200234FEA8C2041EA9C51B9
:10253000FDF7A6FED1E70348D7E70348D5E700BF7C
:102540000038024040787D010024F400002800F0AB
:102550009B8070B50D4604464F4B1B6803F0070384
:102560008B4208D2CBB24C4A1370136803F00703B6
:102570008B4240F08B80236813F0020F17D013F0CA
:10258000040F04D0454A936843F4E05393602368F2
:1025900013F0080F04D0414A936843F460439360FA
:1025A0003E4A936823F0F003A1680B4393602368CD
:1025B00013F0010F32D06368012B21D09A1E012A3B
:1025C00025D9364A126812F0020F61D033498A6861
:1025D00022F0030213438B60FEF7D6FB06462F4B17
:1025E0009B6803F00C036268B3EB820F16D0FEF712
:1025F000CBFB801B41F288339842F0D9032042E0A4
:10260000264A126812F4003FE0D101203BE0234A41
:10261000126812F0007FD9D1012034E01E4B1B68F4
:1026200003F00703AB4207D9EAB21B4B1A701B68D1
:1026300003F00703AB422DD1236813F0040F06D03B
:10264000164A936823F4E053E1680B4393602368D0
:1026500013F0080F07D0114A936823F460432169EF
:1026600043EAC1039360FFF71DFF0C4B9B68C3F364
:1026700003130B4AD35CD8400A4B18600A4B186806
:10268000FEF736FB002070BD012070470120FAE7FD
:102690000120F8E70120F6E7003C02400038024044
:1026A000F46100080800002010000020014B1868A9
:1026B000704700BF0800002008B5FFF7F7FF044B84
:1026C0009B68C3F38223034AD35CD84008BD00BF94
:1026D00000380240EC61000808B5FFF7E7FF044B43
:1026E0009B68C3F34233034AD35CD84008BD00BFA4
:1026F00000380240EC610008026802F10C0353E864
:10270000003F23F490730C3242E800310029F3D1EA
:10271000026802F1140353E8003F23F0010314326E
:1027200042E800310029F3D1036B012B05D02023AF
:1027300080F84230002303637047026802F10C0303
:1027400053E8003F23F010030C3242E80031002927
:10275000F3D1ECE710B504460268136923F4405343
:10276000C1680B431361836802691A4343691A43C2
:10277000C3691A430168CB6823F4164323F00C03A2
:102780001343CB600268536923F4407381690B43A0
:1027900053610368314A934206D002F58062934246
:1027A00002D0FFF789FF01E0FFF796FFE369B3F579
:1027B000004F29D00021031849411B1841F10001A5
:1027C000C90041EA5371DB00181863684FEA8302BD
:1027D0004FEA937341F10001FDF752FD204AA2FB3D
:1027E00000314909642303FB11031B013233A2FBAF
:1027F00003235B0903F0F00202EB011203F00F0365
:10280000216813448B6010BD0023021843EB0301C1
:10281000121841F10001C90041EA5271D2001018AA
:1028200041F10001626892185B41FDF729FD0C4AF5
:10283000A2FB00314909642303FB1103DB0032339F
:10284000A2FB03235B095A0002F4F87202EB0112A7
:1028500003F00703216813448B60D4E700100140A4
:102860001F85EB512DE9F04383B005460E46174610
:102870009946DDF828802B681C6836EA04040CBFF2
:1028800001240024BC4228D1B8F1FF3FF3D0FEF769
:102890007BFAA0EB0900404523D8B8F1000F22D005
:1028A0002B68DA6812F0040FE5D0802EE3D0402EBA
:1028B000E1D01A6812F0080FDDD0002401941A68E4
:1028C00001925B680193019B2846FFF715FF0823DF
:1028D0006B6485F84040012000E0002003B0BDE8B3
:1028E000F0830320FAE70320F8E760B310B504464D
:1028F00090F8413013B3242384F841302268D36820
:1029000023F40053D3602046FFF724FF22681369A5
:1029100023F4904313612268536923F02A0353611F
:102920002268D36843F40053D360002060642023FE
:1029300084F8413084F84230606310BD80F8403044
:10294000FEF772F9D7E7012070472DE9F04182B018
:102950001E4690F84130DBB2202B56D104460D467E
:102960009046002955D00AB901204FE00023436466
:10297000212380F84130FEF707FA0746A4F82480A7
:10298000A4F82680A368B3F5805F02D04FF000085A
:1029900014E023692BB34FF000080FE0202384F8E4
:1029A0004130032032E038F8023B2268C3F30803C9
:1029B0005360E28C92B2013A92B2E284E38C9BB211
:1029C00093B100963B46002280212046FFF74AFF44
:1029D0000028E3D1002DE6D015F8012B23685A60BA
:1029E000E7E7A8460025E9E700963B46002240219C
:1029F0002046FFF737FF18B9202384F8413005E05F
:102A0000202384F84130032000E0022002B0BDE81A
:102A1000F0810120FAE782B000230193019B01338A
:102A20000193019BB3F1706F1CD80369002BF5DA99
:102A30000A23019302E0019B013B0193019B002BC0
:102A4000F9D1036943F001030361019B0133019351
:102A5000019BB3F1706F08D8036913F0010FF4D133
:102A6000002000E0032002B070470320FBE784B0A1
:102A700010B5044603A880E80E009DF81130012B24
:102A800021D1A36B23F48033A363E36823F484038D
:102A900023F04003E360E36823F44013E3609DF810
:102AA0001830012B0AD02046FFF7B5FF9DF80E30F5
:102AB000012B1CD0BDE8104004B07047E36843F41C
:102AC0008013E360EFE7E36843F04003E3602046F0
:102AD000FFF7A1FF9DF8153023B9A36B43F48033B2
:102AE000A363E3E7A36B23F48033A363DEE7A36868
:102AF00043F00603A360A36843F02003A360D9E773
:102B0000022A0AD00922C36823F47053C360C36841
:102B100043EA8223C36000207047234B0B44234ABF
:102B200093422FD9224B0B44224A93422CD9A1F530
:102B30007403A3F51053204A934227D9A1F183735C
:102B4000A3F5E7431D4A934222D31D4B0B441D4A74
:102B500093421FD91C4B0B441C4A93421CD31C4B61
:102B60000B441C4A934219D3A1F1B773A3F55853F0
:102B7000194A934214D3194B0B44194A934211D268
:102B80000722C0E70F22BEE70E22BCE70D22BAE7FC
:102B90000C22B8E70B22B6E70A22B4E70922B2E713
:102BA0000822B0E70622AEE7405327FFFF340C00AF
:102BB000401E1BFF3F420F007F4F120020D6130024
:102BC00060B6E5FE5FE3160000D3CEFE40771B0043
:102BD000C05BB3FEC091210020753800E05459FE5F
:102BE000E09C4100836843F001038360002070474C
:102BF000836823F0010383600020704782B00023C4
:102C00000193019B01330193019BB3F1706F15D8C0
:102C10000369002BF5DA00230193890141F02001BB
:102C20000161019B01330193019BB3F1706F08D8DF
:102C3000036913F0200FF4D1002000E0032002B05C
:102C400070470320FBE782B000230193019B01330F
:102C50000193019BB3F1706F13D80369002BF5DA70
:102C60000023019310230361019B01330193019B16
:102C7000B3F1706F08D8036913F0100FF4D100207E
:102C800000E0032002B070470320FBE7D0F80038D3
:102C90001943C0F8001800207047000084B0F8B550
:102CA000044607A880E80E00002306E003F1400276
:102CB00004EB82020021516001330E2BF6D99DF8FE
:102CC000266006BBD4F8043843F00203C4F8043885
:102CD000A36B43F40013A363A36B23F40023A36348
:102CE000A36B23F48023A3630023C4F8003E9DF864
:102CF0002130012B15D19DF81F306BB900212046E2
:102D0000FFF7C4FF11E0A36B23F40013A363A36BCD
:102D100043F40023A363E7E701212046FFF7B6FF52
:102D200003E003212046FFF7B1FF10212046FFF703
:102D300065FF054600B101252046FFF784FF00B17D
:102D4000012504F5006C0023CCF81030CCF81430C9
:102D5000CCF81C300AE0CBB94FF00060C2F8000993
:102D600000220A614FF67F328A6001339DF81C1001
:102D7000994210D904EB431202F51061D2F8000910
:102D80000028E8DB0020C2F80009E9E74FF0904096
:102D9000C2F80009E4E700230AE0BBB14FF0904716
:102DA000C2F8007B002202614FF67F32826001335D
:102DB000994210D904EB431202F53060D2F8007B3F
:102DC000002FEADB0027C2F8007BEBE74FF000673B
:102DD000C2F8007BE6E7DCF8103023F48073CCF80F
:102DE00010300023A3616FF0804363619DF81E30B3
:102DF0001BB9A36943F01003A361A2690B4B1343F2
:102E0000A3619DF822301BB1A36943F00803A361BD
:102E1000012E04D02846BDE8F84004B07047A369ED
:102E200043F0804343F00403A361F3E700383C80A0
:102E3000D0F8083803F00603022B04D0062B04D088
:102E40002BB90020704702207047022070470F20E6
:102E5000704710B591F800C04B78012B23D000F5D6
:102E6000006ED0F81C380CF00F040122A24043EA97
:102E70000243C0F81C3800EB4C10D0F8003B13F4B0
:102E8000004F0ED1D0F8003B8A68C2F30A020979DC
:102E900042EA8142134343F0805343F40043C0F8B5
:102EA000003B002010BDD0F81C280CF00F0E03FAD8
:102EB0000EF39BB21343C0F81C3800EB4C10D0F853
:102EC000003913F4004FECD1D0F800398A68C2F30E
:102ED0000A02097942EA814242EA8C52134343F0E2
:102EE000805343F40043C0F80039DAE710B483B0EC
:102EF000024600230193487801280BD00B7802EB9F
:102F00004313D3F8000B00282DDB002003B05DF83D
:102F1000044B70470B7802EB4313D3F80049002CA5
:102F200001DB0020F2E7D3F8004944F00064C3F865
:102F300000490B7802EB4313D3F8004944F0804476
:102F4000C3F80049019B01330193019C42F21073C5
:102F50009C42DBD80B7802EB4313D3F80039002BEB
:102F6000F0DB0020D2E7D3F8000B40F00060C3F89C
:102F7000000B0B7802EB4313D3F8000B40F08040BA
:102F8000C3F8000B019B01330193019842F21073C7
:102F9000984208D80B7802EB4313D3F8003B002B80
:102FA000F0DB0020B2E70120B0E710B59DF8084043
:102FB00084B903334FEA930E4FF0000C08E000EBA6
:102FC000023303F5805351F8044B1C600CF1010CE3
:102FD000F445F4D3002010BDF0B583B00C784B78E5
:102FE000012B2DD000EB441C0CF530631D696FF3F1
:102FF00012051D611D696FF3DC451D61002C40F059
:10300000CE800C690CB18C680C618C680C621D69F7
:10301000C4F312042C431C611C6944F400241C6199
:10302000012A00F0DF800B79012B00F0E180DCF851
:10303000003B43F00443CCF8003B002003B0F0BD5C
:103040000B6973BB00EB4413D3F810596FF3DC45E5
:10305000C3F81059D3F8105945F40025C3F8105996
:10306000D3F810596FF31205C3F81059012A54D040
:1030700000EB4414D4F8003943F00443C4F8003999
:103080000B79012B72D00B69002BD6D0D0F83438D5
:10309000097801F00F0101228A401343C0F8343847
:1030A000CBE700EB441303F510631D696FF31205C2
:1030B0001D611D696FF3DC451D6184B90E698D6862
:1030C000AE4200D90D611D6945F400251D611D69E1
:1030D0000E69C6F3120C45EA0C051D61C6E70D69C1
:1030E0008E683544013DB5FBF6F51E691FFA85FC77
:1030F000494F07EAC54535431D610D79012DE6D1DC
:103100001D6925F0C0451D611D694FEA4C7C0CF01E
:10311000C04C45EA0C051D61D9E7CB691BB100EB3A
:103120004412C2F814390B79012B08D000EB441477
:10313000D4F8003943F00443C4F800397DE7D0F8EF
:10314000083813F4807F08D100EB4412D2F800391C
:1031500043F00053C2F80039E8E700EB4412D2F81C
:10316000003943F08053C2F80039DFE7D0F808385F
:1031700013F4807F0CD1D4F8003943F00053C4F825
:10318000003900920B8A0A78C968FFF70EFF54E7EE
:10319000D4F8003943F08053C4F80039F1E70C69E2
:1031A00054B91C698D68C5F312052C431C611C6958
:1031B00044F400241C6133E78D682C44013CB4FBCB
:1031C000F5F4A4B204FB05F50D621D69124E06EA82
:1031D000C4442C431C611C690D6AC5F312052C43C1
:1031E0001C611DE7CA68002A3FF41DAF5A611AE747
:1031F000D0F8083813F4807F06D1DCF8003B43F0A8
:103200000053CCF8003B12E7DCF8003B43F080535E
:10321000CCF8003B0BE700BF0000F81F10B5844658
:1032200008464FEA920E02F00302002305E00CF577
:103230008051096840F8041B01337345F7D37AB114
:103240000CF5805CDCF800400021CBB2DB0024FAF6
:1032500003F300F8013B0131013A92B2002AF4D1A4
:1032600010BD0B784A78012A14D000EB4310D0F837
:10327000002B002A06DB2BB1D0F8003B23F0804363
:10328000C0F8003BD0F8003B43F40013C0F8003B0B
:103290000020704700EB4310D0F80029002A06DB1D
:1032A0002BB1D0F8003923F08043C0F80039D0F8B2
:1032B000003943F40013C0F80039E9E70B784A7885
:1032C000012A0ED000EB4310D0F8003B23F400138A
:1032D000C0F8003B0B79023BDBB2012B15D9002073
:1032E000704700EB4310D0F8003923F40013C0F806
:1032F00000390B79023BDBB2012BF0D8D0F8003952
:1033000043F08053C0F80039E9E7D0F8003B43F0C0
:103310008053C0F8003BE2E7D0F8003823F4FE63A6
:10332000C0F80038D0F80038090101F4FE610B4301
:10333000C0F8003800207047D0F8003E23F00303A7
:10334000C0F8003ED0F8043823F00203C0F8043877
:1033500000207047D0F8003E23F00303C0F8003E81
:10336000D0F8043843F00203C0F804380020704756
:103370004269806910407047D0F8183800F5006045
:10338000C0691840000C7047D0F8183800F500608C
:10339000C069184080B2704700EB4111D1F8082B8A
:1033A00000F50060406910407047D0F81028D0F850
:1033B000343801F00F0C23FA0CF3DB01DBB21343BA
:1033C00000EB411000F510608068184070474069BC
:1033D00000F00100704738B50546C36823F0C043CC
:1033E000C360012913D019BBC36843F08043C36095
:1033F00000240A20FDF7CEFC0A342846FFF7E7FF39
:1034000008B1C72CF5D9C82C14D0002038BDC3682A
:1034100043F00053C36000240A20FDF7BBFC0A34CC
:103420002846FFF7D4FF0128EDD0C72CF4D9EAE7EE
:103430000120EBE70120E9E7D0F800396FF30A0338
:10344000C0F80039D0F8043843F48073C0F8043869
:103450000020704710B4046C154B9C4203D9D0F87F
:10346000003B002B16DB0024C0F8104BD0F8104BAB
:1034700044F40024C0F8104BD0F8104B44F018046A
:10348000C0F8104BD0F8104B44F0C044C0F8104BBB
:10349000012903D000205DF8044B7047C0F8142BBD
:1034A000D0F8003B43F08023C0F8003BF2E700BFB8
:1034B0000A30544F98B108B503460020C3F8B8024B
:1034C000C3F8C402C3F8D00209B1C3F8B412012191
:1034D00083F89C121A70184601F03CFC08BD0320CA
:1034E000704710B582B00023ADF80630B9B104467C
:1034F000C0F8B812D0F8D422CB6A43B1AE3250F83B
:103500002230DB6A0DF106009847C4F8D002D4F8E7
:10351000D8320133C4F8D832002002B010BD0320E5
:10352000FBE708B501F06FFC08BD10B5044601F0DB
:1035300072FCD4F8B8321BB15B68217920469847F9
:10354000002010BD08B5D0F8B83213B11B689847F9
:1035500008BD0020FCE708B5D0F8B8325B68984792
:1035600000B908BD0320FCE738B5044600F2AA25DF
:10357000284600F0AEF90123C4F89432B4F8B03212
:10358000C4F8983294F8AA1201F01F03012B07D057
:10359000022B0AD073B92946204600F085FB38BDBE
:1035A0002946204600F0BBFBF9E72946204600F0FB
:1035B000F8FBF4E701F08001204601F03FFCEEE764
:1035C000F8B50446012380F89C320023C0F89432F9
:1035D0004360C0F8A43280F8A032D0F8B832E3B12A
:1035E0005B68E3B1002198470746D0B94023002229
:1035F0001146204601F017FC012684F8636140253E
:10360000A4F860512B4600228021204601F00BFCDB
:1036100084F8236025843846F8BD0027E6E70027B4
:10362000E4E70327E2E701740020704790F89C323A
:10363000DBB2042B04D090F89C32DBB280F89D32D0
:10364000042380F89C320020704790F89C32DBB253
:10365000042B01D00020704790F89D32DBB280F837
:103660009C32F7E708B590F89C32DBB2032B01D00F
:10367000002008BDD0F8B832002BF9D0DB69002B50
:10368000F6D09847F4E708B5D0F8D432AE3350F806
:1036900023205AB190F89C32DBB2032B01D00020DA
:1036A00008BD136A23B198470020F9E70320F7E724
:1036B0000020F5E708B5D0F8D432AE3350F8232017
:1036C0005AB190F89C32DBB2032B01D0002008BD28
:1036D000536A23B198470020F9E70320F7E7002059
:1036E000F5E70020704708B5012380F89C32D0F838
:1036F000B83223B15B680179984710B908BD002042
:10370000FCE70320FAE7002070470020704738B537
:1037100004460D46002945D1D0F89432032B01D040
:10372000084638BDD0F85831B0F86021934209D826
:1037300090F8AA3203F01F03012B12D0022B1FD0E6
:10374000084613E09B1AC0F85831D0F864111144B0
:10375000C0F864119A4238BF1A4601F0B1F8284601
:10376000DFE790F8AE12FFF7CEFF20B994F89C3255
:10377000DBB2032B09D0204601F0AAF82846D0E797
:1037800090F8AE12FFF7C1FFEFE700F1AE0354F877
:1037900023301A69002AEED0C4F8D4021B692046EF
:1037A0009847E8E701F07F01FFF7AFFF90B994F881
:1037B0009C32DBB2032BB4D100F1AE0354F82330BA
:1037C0009A69002AADD0C4F8D4029B6929462046E4
:1037D0009847A6E70020A4E738B504460D4600291F
:1037E0004CD1D0F89432022B07D094F8A00218B133
:1037F000002384F8A032284638BD8269038C9A429F
:103800000ED89A421AD094F89C32DBB2032B29D0FE
:103810008021204601F012FB204601F064F8E4E725
:10382000D21A8261416A1944416201F030F80023E2
:103830001A461946204601F021FBD6E74269934219
:10384000E1D8D0F898329A42DDD20022114601F038
:103850001EF80021C4F898120B460A46204601F0D3
:103860000DFBC2E7D4F8B832DA68002AD0D00022C3
:10387000C4F8D422DB6820469847C9E741F08001AC
:10388000FFF743FF90B994F89C32DBB2032BB3D11E
:1038900000F1AE0354F823305A69002AACD0C4F8C2
:1038A000D4025B69294620469847A5E70020A3E794
:1038B0000B88027813440B80037818447047034642
:1038C000002002E00130C0B201331A78002AF9D199
:1038D00070470B7803704B7843708B78CA7843EA53
:1038E000022343800B794A7943EA022383808B7950
:1038F000CA7943EA0223C380704710B50446802189
:1039000001F09CFA0021204601F098FA10BD70B534
:1039100082B004460D460023ADF806304A88130AEB
:10392000013B062B00F2C180DFE803F0041F33BF28
:10393000BFA3B000D0F8B4321B680DF10601007CC3
:103940009847EA88002A00F0B980BDF80630002BBD
:1039500000F0AF809A4228BF1A46ADF80620014613
:10396000204600F086FF02B070BD037C43B9D0F85A
:10397000B8329B6A0DF10600984702234370E0E7D6
:10398000D0F8B832DB6A0DF1060098470223437085
:10399000D7E7D2B2052A69D8DFE802F003101D2A62
:1039A0003744D0F8B4325B6823B10DF10601007CD6
:1039B0009847C6E72946FFF7A0FFD4E7D0F8B4320E
:1039C0009B6823B10DF10601007C9847B9E72946B1
:1039D000FFF793FFC7E7D0F8B432DB6823B10DF1EE
:1039E0000601007C9847ACE72946FFF786FFBAE757
:1039F000D0F8B4321B6923B10DF10601007C984761
:103A00009FE72946FFF779FFADE7D0F8B4325B694D
:103A100023B10DF10601007C984792E72946FFF794
:103A20006CFFA0E7D0F8B4329B6923B10DF1060119
:103A3000007C984785E72946FFF75FFF93E706F18B
:103A4000AE0354F823309A6B52B1C4F8D4629B6B26
:103A50000DF10602A9782046984700287FF471AF3F
:103A60000136D4F8D832B342E9D86AE700263046A6
:103A7000F7E7037C33B9D0F8B8325B6B0DF1060081
:103A800098475EE72946FFF738FF6CE7037C43B9A8
:103A9000D0F8B8321B6B0DF106009847072343702E
:103AA0004FE72946FFF729FF5DE72946FFF725FF86
:103AB00059E729462046FFF720FF54E7204600F04B
:103AC00007FF50E738B504468B88FBB9CB88EBB9C4
:103AD0004B887F2B1AD803F07F0590F89C32DBB21D
:103AE000032B0CD080F89E52294601F0B7F92046EE
:103AF00000F0EEFE35B1022384F89C3209E0FFF7B6
:103B0000FCFE06E0012384F89C3202E02046FFF729
:103B1000F4FE38BD70B504460E468D782F4B1D70EF
:103B2000012D10D890F89C32DBB2022B0FD0032B62
:103B300026D0FFF7E2FE294B19782046FFF70BFD50
:103B40000325284670BDFFF7D8FE0325F9E7A5B188
:103B500045602946FFF7F6FC054638B13146204658
:103B6000FFF7CBFE022384F89C32EAE7204600F000
:103B7000AFFE032384F89C32E3E700F0A9FEE0E700
:103B8000CDB141688D4225D0C9B2FFF7E4FC134B9B
:103B9000197861602046FFF7D5FC0546B0B1314683
:103BA0002046FFF7AAFE21792046FFF7D4FC022326
:103BB00084F89C32C5E7022380F89C324560294690
:103BC000FFF7C9FC204600F083FEBAE7204600F06C
:103BD0007FFEB6E700F07CFE0025B2E7D0010020B2
:103BE00008B5CB88012B0BD190F89C32DBB2022BAD
:103BF00009D9032B11D10122011D00F03AFE01E089
:103C0000FFF77BFE08BD5BB23BB10146002341F8E4
:103C1000083F012200F02DFEF4E7FFF76EFEF1E70A
:103C200008B590F89C32013B022B12D8CB88022BAE
:103C30000CD10123C360D0F8A4320BB10323C360BD
:103C4000022200F10C0100F014FE08BDFFF755FE42
:103C5000FBE7FFF752FEF8E708B54B88012B04D0CD
:103C6000022B07D0FFF749FE08BDC0F8A43200F0D0
:103C70002FFEF9E78B881B0A80F8A03200F028FE9F
:103C8000F2E708B590F89C32013B022B09D84B882B
:103C9000012B00D008BD0023C0F8A43200F018FEAC
:103CA000F8E7FFF72AFEF5E738B50C7804F0600472
:103CB000202C06D0402C04D06CB1FFF71EFE00244F
:103CC00007E0D0F8D432AE3350F823309B689847E1
:103CD0000446204638BD4D78092D1DD8DFE805F093
:103CE00012191C161C08051C0F0BFFF710FEF0E73D
:103CF000FFF7E8FEEDE7FFF70DFF0446E9E7FFF702
:103D00006FFFE6E7FFF78CFF2C46E2E7FFF7A4FF23
:103D1000DFE7FFF7B6FFDCE7FFF7EFFDD9E770B5A8
:103D200005460C460B7803F06003202B07D0402B90
:103D300005D023B1FFF7E1FD0026304670BD95F8B0
:103D40009C32013B022B26D82179012905D9214635
:103D50002846FFF7D2FD0026EFE72846FFF7D3FC01
:103D600068B900F1AE0255F82220916889B1C5F812
:103D7000D4029368214628469847064600E0032669
:103D8000E388002BD9D1002ED7D1284600F0A0FD22
:103D9000D3E70326F4E721462846FFF7AEFD0026C9
:103DA000CBE72DE9F04106460D468B88DFB20C7853
:103DB00004F06004202C08D0402C06D0DCB1FFF7C2
:103DC0009CFD00242046BDE8F08139463046FFF7CF
:103DD0009CFC0446002840F0F980C6F8D40200F1AB
:103DE000AE0356F823309B68002BEBD029463046B3
:103DF00098470446E6E791F80180B8F1010F31D009
:103E0000B8F1030F05D0B8F1000F67D0FFF775FDCB
:103E1000D8E790F89C32DBB2022B04D0032B12D0EF
:103E2000FFF76BFDCEE70FB1802F04D12946304656
:103E3000FFF763FDC6E7394601F000F88021304600
:103E400000F0FCFFBEE74B8823B91FB1802F01D0E3
:103E5000CB881BB1304600F03BFDB3E7394600F09C
:103E6000EDFFF7E790F89C32DBB2022B04D0032B76
:103E700012D0FFF742FDA5E70FB1802F04D12946EC
:103E80003046FFF73AFD9DE7394600F0D7FF802125
:103E9000304600F0D3FF95E74B88002B92D117F006
:103EA0007F0F17D1304600F013FD39463046FFF73B
:103EB0002CFC002886D1C6F8D40200F1AE0256F8D8
:103EC00022209268002A00F08380294630469047DD
:103ED000044677E7394600F0B9FFE3E790F89C2203
:103EE000D2B2022A05D0032A28D0FFF706FD4446A5
:103EF00068E70FB1802F14D113F0800F15D107F0B0
:103F00007F0707EB8707B90001F5A8713144043139
:103F1000002301F80E3F0222304600F0AAFC44467E
:103F200050E7FFF7EAFC44464CE707F07F0707EB52
:103F30008707B900103131440431E9E75BB2002B47
:103F400020DB07F00F0202EB820200EB820292F804
:103F5000634124B3002B25DB07F07F0303EB8303CE
:103F60009C0004F5A874344404340FB1802F22D18E
:103F70000023A373022204F10E01304600F079FC05
:103F800044461FE707F00F0202EB820200EB8202B9
:103F900092F82340002CDDD1FFF7AFFC12E7FFF7CA
:103FA000ACFC0FE707F07F0303EB83039C001034A6
:103FB00034440434D9E73946304600F0FFFE10B1EE
:103FC0000123A373D6E70023A373D3E70024F9E604
:103FD0000446F7E600B370B50D4616460446FFF7F3
:103FE0006EFC01304300B3F5007F06D89BB23380EE
:103FF0002B7003236B7002230AE04FF40073F6E783
:10400000EA5401345A1CD2B20021A9540233DBB263
:104010002278002AF4D170BD70470000BFF34F8FA3
:104020000549CA6802F4E062044B1343CB60BFF356
:104030004F8F00BFFDE700BF00ED00E00400FA0570
:104040001B23038000487047200000200020704799
:10405000002070470A2303800048704714000020A6
:10406000D0F8D432B03350F82330A3B193F81C24E5
:104070000A2A11D00A2183F81C140E2283F8142472
:10408000002283F8152483F8162483F8172483F874
:10409000181483F819247047022183F81C14002295
:1040A00083F8142483F8152483F8162483F817243E
:1040B00083F8181483F819247047D0F8D432B03339
:1040C00050F82330EBB193F81C14092919D84FF498
:1040D0001B72CA4012F0010F13D0022183F81C1486
:1040E000002283F8142483F8152483F8162483F817
:1040F000172483F8181483F81924C3F80024C3F88C
:1041000004247047D0F8D432B03300EB8300436806
:10411000062907D810B5054C21461868FFF75AFF45
:10412000204610BD00201080704700BFD401002041
:10413000428803789A4214D910B582B00446ADF88B
:1041400006306388BDF806209A4207D20DF10601B9
:10415000FFF7AEFB4378212BF3D100E0002002B043
:1041600010BD0020704770B50446D0F8D432B0338B
:1041700050F8235000EB83035E68D0F8D002FFF7BD
:10418000D7FFA5B19EB190B1002385F81D34837887
:1041900013F0040F0CD0062285F81C24002385F8A8
:1041A000153485F8163485F8173485F8182470BD51
:1041B000082285F81C24002385F8153485F8163468
:1041C00085F8173485F818242046FFF7AEF9FFF775
:1041D00025FF10B582B0D0F8D432B03350F8234068
:1041E00000EB83035A68002C00F08C8094F81C3498
:1041F000042B05D0072B00F08180032002B010BDF6
:10420000D4F8001400294AD1D4F80434012B53D037
:10421000052B36D12378212B20D0412B74D1637804
:10422000A17803EB0123E17803EB01432079D26805
:1042300003EB0060904700283ED00A2284F81C243B
:104240000B2384F81434002384F8153484F81634CE
:1042500084F8173484F818240320CFE76378C4F86F
:104260000834A27803EB0223C4F80834E27803EBA5
:104270000243C4F80834227903EB0263C4F808341B
:104280001AE00023C4F80434C4F800348DF8003078
:104290000123ADF806306946FFF72FFB0CE001293A
:1042A0000AD90239D4F808041369D4F8042400EBBD
:1042B00081212046984780B90020C4F80404C4F83E
:1042C0000004032384F81C3484F8150484F81604CD
:1042D00084F8170484F8183490E70A2284F81C2420
:1042E0000B2384F81434002384F8153484F816342E
:1042F00084F8173484F8182403207FE7FFF733FF8E
:1043000000207BE7032079E7032077E7F8B50E4626
:10431000D0F8D432B03350F8234000EB830359680F
:10432000002C00F087800546F388002B76D094F8A7
:104330001C34022B01D0092B67D17088C4F800040B
:10434000F288B2F5806F28BF4FF48062C4F804246D
:10435000D0B9032A16D9022284F81C24002384F839
:10436000153484F8163484F8173484F8182423702C
:10437000212363704123A37003222146284600F0C5
:1043800078FA57E00922E7E701282DD94FF0090C08
:1043900084F81CC4002384F8153484F8163484F897
:1043A000173484F818C40238D4F808344F69214609
:1043B00003EB8020B847014628B1D4F804242846EE
:1043C00000F057FA36E00F2284F81C24002384F80A
:1043D000153484F8163484F8173484F818243146D8
:1043E0002846FFF78AFA25E00F2284F81C240023D0
:1043F00084F8153484F8163484F8173484F81824B3
:1044000031462846FFF779FA14E00023C4F8043453
:10441000C4F800343146FFF770FA0BE0022284F84A
:104420001C24002384F8153484F8163484F81734D7
:1044300084F81824F8BD70B50446D0F8D432B033EF
:1044400050F8235000EB83035E68D0F8D002FFF7EA
:104450006FFE6DB166B158B195F81C34032B08D0CE
:10446000062B38D0062205F21441204600F001FA4E
:1044700070BDD5F804340BB3042285F81C24002346
:1044800085F8153485F8163485F8173485F818241E
:10449000D5F8003413B92B78412B07D0B36905F256
:1044A00014420121D5F808049847DBE7B36905F207
:1044B00014420021D5F808049847D3E7052285F86F
:1044C0001C24002385F8153485F8163485F8173434
:1044D00085F81824C6E795F81D34012B12D0002B5F
:1044E000C0D1837813F0040FBCD0022285F81C24BD
:1044F000002385F8153485F8163485F8173485F8C7
:104500001824AFE7072385F81C34012285F8152409
:10451000002285F8162485F8172485F81834A1E7B9
:1045200008B5D0F8D432B03350F8231021B10122AD
:1045300001F21C4100F09DF908BD08B5D0F8D43255
:10454000B03350F823309BB3CA88E2B193F81C24EF
:10455000022A01D0052A13D14A88C3F80024CA8848
:10456000B2F5806F28BF4FF48062C3F804240321A2
:1045700083F81C1483F81814194600F090F917E01A
:10458000FFF7BBF914E093F81C24052A01D0022A96
:104590000FD1012283F81D24062183F81C14002268
:1045A00083F8152483F8162483F8172483F8181445
:1045B00008BDFFF7A2F9FBE770B504460E46D0F838
:1045C000D432B03350F82350D0F8D002FFF7B0FD0A
:1045D00045B338B395F81C24092A19D84FF41B7336
:1045E000D34013F0010F13D0022285F81C240023BE
:1045F00085F8143485F8153485F8163485F81734A1
:1046000085F8182485F81934C5F80034C5F8043441
:10461000837813F0080F06D02046FEF786FF204669
:10462000FEF77FFF70BD7088FCF7B4FBFAE7F0B5CA
:1046300083B00E46D0F8D432B03350F823100023A4
:10464000ADF80630002900F098800546347814F063
:1046500060042ED0202C40F089807478062C23D85A
:10466000DFE804F01E04090E12161A003146FFF7A7
:1046700064FF00247EE03146FFF748FE002479E025
:10468000FFF7D9FE002475E0FFF7EAFC002471E093
:10469000FFF746FF00246DE0FFF70FFD002469E0FF
:1046A0003146FFF789FF65E03146FFF726F903241D
:1046B00060E077780B2F54D8DFE807F0065C53539F
:1046C0005353175353532F3F90F89C32DBB2032BB5
:1046D00004D03146FFF711F903244BE002220DF11B
:1046E000060100F0C6F83C4644E073881B0A212B03
:1046F00040D1D0F8D002FFF71BFD014638B1F28857
:10470000092A28BF0922284600F0B3F832E03146D2
:104710002846FFF7F2F803242CE090F89C32DBB235
:10472000032B04D03146FFF7E8F8032422E00122EE
:1047300001F5826100F09DF81CE0B47864B990F84E
:104740009C32DBB2032B02D1C1F8104412E0314697
:10475000FFF7D3F803240DE03146FFF7CEF803242A
:1047600008E03146FFF7C9F8032403E03146FFF7BC
:10477000C4F80324204603B0F0BD0324FAE738B59B
:10478000D0F8D432B03350F8233023B30446002598
:10479000C3F80054C3F80454022283F81C2483F89D
:1047A000145483F81824D0F8D432B03300EB8303C8
:1047B0005B689B689847D4F8D432B03354F8230030
:1047C00000F016FBD4F8D432B03344F82350C4F8C8
:1047D000BC52284638BD0220FCE7000010B5044654
:1047E0004FF4846000F000FB58B3D4F8D422B03208
:1047F00044F82200C4F8BC020022C0F81024164974
:10480000C0F80814C0F80024C0F8042480F81D245F
:10481000022180F81C1480F8142480F8152480F8F4
:10482000162480F8172480F8181480F81924D4F876
:10483000D432B03304EB830463685B68984740B9B3
:1048400010BDD4F8D432B033002244F82320022023
:10485000F6E70320F4E700BF0080000839B1D0F884
:10486000D432B03300EB8300416000207047032056
:10487000704708B513460222C0F894224361416292
:1048800083610A46002100F0F1FA002008BD08B556
:1048900013460A46002100F0E9FA002008BD08B5D9
:1048A00013460322C0F89422C0F85431C0F86411B2
:1048B000C0F858310A46002100F0E0FA002008BD97
:1048C00008B513460A46002100F0D8FA002008BDBA
:1048D00008B50422C0F8942200231A46194600F0B5
:1048E000C5FA002008BD08B50522C0F894220023AF
:1048F0001A46194600F0C2FA002008BD08B5002289
:104900000F491048FEF7D6FD70B90F490D48FEF764
:10491000E8FD60B90D490B48FFF7A0FF50B9094801
:10492000FEF7FFFD48B908BDFBF7D0FFEDE7FBF749
:10493000CDFFEFE7FBF7CAFFF1E7FBF7C7FFF2E7B1
:10494000AC000020D40200203C000020C800002061
:1049500012230B80004870479800002004230B802E
:104960000048704794000020002393421ED200B5F7
:1049700010E00CF1370C01F813C000014FEA430CB2
:104980000CF1010C4FF0000E01F80CE00133DBB22A
:10499000934209D24FEA107CB0F1204FE9D20CF1DA
:1049A000300C01F813C0E8E75DF804FB7047000025
:1049B00038B50B4BD3F8100AD3F8144AD3F8183A89
:1049C000C01800D138BD074D08222946FFF7CCFF9B
:1049D000042205F110012046FFF7C6FFF2E700BFF1
:1049E0000070FF1F7A00002008B51A230B80FFF724
:1049F000DFFF014808BD00BF7800002008B50A4667
:104A000028B905490548FFF7E5FA034808BD0249FA
:104A10000248FFF7DFFAF8E7B00500205861000808
:104A200010B50A46034C21460348FFF7D3FA204647
:104A300010BD00BFB00500207861000808B50A4627
:104A400028B905490548FFF7C5FA034808BD0249DA
:104A50000248FFF7BFFAF8E7B00500208C610008B4
:104A600008B50A4628B905490548FFF7B3FA0348CF
:104A700008BD02490248FFF7ADFAF8E7B00500208B
:104A80009861000800F17843B3F5804F29D3A3F56E
:104A90008043B3F5804F26D300F17843A3F500435C
:104AA000B3F5804F21D300F17843A3F54043B3F52C
:104AB000804F1CD300F1774303F57F03B3F5803FAC
:104AC00017D300F1774303F57E03B3F5003F12D30C
:104AD00000F1774000F57C00B0F5003F0DD20620D4
:104AE0007047002070470120704702207047032064
:104AF0007047042070470520704707207047012049
:104B00007047034608464FF0000C94450AD200B5A2
:104B100013F801EB00F80CE00CF1010C9445F7D30D
:104B20005DF804FB704741B1012904D13223537071
:104B300000239370D37000207047322353700023FA
:104B40009370D370F7E7F8B501F17843A3F500430C
:104B5000B3F5F02F14D206460D4617460024BC428A
:104B60000CD23259002329190220FCF795FA48B9D2
:104B700031592B59994207D10434F0E70020F8BD90
:104B80000320FCE70320FAE70620F8E700F178436A
:104B9000A3F50043B3F5F02F19D270B586B00446E3
:104BA00000260096FFF76EFF054601962046FFF7A8
:104BB000A6FF0290039501230493022305936946FF
:104BC00001A8FCF70FFB20B9304606B070BD0320EA
:104BD00070470320F9E708B5FCF724FA00B908BDCF
:104BE0000320FCE708B5FCF705FA00B908BD03206F
:104BF000FCE7000030B589B00023039304930593CC
:104C0000069307930368B3F1A04F01D009B030BDFC
:104C100000250195164C236B43F001032363236B9E
:104C200003F001030193019B4FF4C053039302234C
:104C30000493032306930A23079303A90D48FCF763
:104C40001BFB636B43F0800363630295636C43F467
:104C500080436364636C03F480430293029B2A469F
:104C600029464320FCF7FEF84320FCF70BF9CDE77B
:104C7000003802400000024008B500F29C41D0F824
:104C8000E004FEF771FC08BD08B501EBC10300EBC1
:104C90008303D3F86022D0F8E004FEF738FD08BDA6
:104CA00008B501EBC10300EB83031A6AD0F8E004F6
:104CB000FEF792FD08BD08B5D0F8E004FEF7D2FC7F
:104CC00008BD10B50446C379022B09D10121D4F8DF
:104CD000E004FEF7A8FCD4F8E004FEF771FC10BD78
:104CE000FBF7F4FDF2E7000010B50446D0F8E0044D
:104CF000FEF79CFC2268D2F8003E43F00103C2F8A4
:104D0000003EE37A23B1034A136943F006031361BB
:104D100010BD00BF00ED00E008B5D0F8E004FEF7DC
:104D200094FC08BD08B5D0F8E004FEF7C3FC08BD4C
:104D300008B5D0F8E004FEF7A6FC08BD08B5D0F829
:104D4000E004FEF7CEFC08BD08B5D0F8E004FEF79D
:104D5000CAFC08BD02780AB10020704710B50346AE
:104D60001548C0F8E034C3F8C8024FF0A043036010
:104D7000042303710222C271002383714272837281
:104D8000C37203738373C373FCF7D8FB80B90A4CF7
:104D900080212046FDF785F9402200212046FDF7BD
:104DA0005AF9802201212046FDF755F9002010BD57
:104DB000FBF78CFDEBE700BFD40B0020D0F8C83226
:104DC00011F0800F08D101F07F0101EBC10103EB6D
:104DD000810393F85602704701F07F0101EBC10196
:104DE00003EB8103987D704700487047B0070020AF
:104DF0007047032805D8DFE800F00504020501200C
:104E000070470320704708B5D0F8C802FCF717FCBC
:104E1000FFF7EFFF08BD08B5D0F8C802FCF731FC7A
:104E2000FFF7E7FF08BD08B594461A466346D0F879
:104E3000C802FCF70AFDFFF7DCFF08BD08B5D0F893
:104E4000C802FCF792FDFFF7D4FF08BD08B5D0F803
:104E5000C802FCF7CDFDFFF7CCFF08BD08B5D0F8C0
:104E6000C802FCF7DFFCFFF7C4FF08BD08B5D0F8A7
:104E7000C802FCF755FDFFF7BCFF08BD08B5D0F828
:104E8000C802FCF728FDFFF7B4FF08BD002310B5EA
:104E90000446C0E90033C0E904338360818143667E
:104EA000C2818361194608225C3000F0F9F90D4B8C
:104EB00063620D4BA3620D4BE3620D4B23630D4BFD
:104EC00024629C4206D003F16802944202D0D0339F
:104ED0009C4205D104F15800BDE8104000F058BADA
:104EE00010BD00BFF1500008135100084B510008DD
:104EF0006F510008B8100020024A0349034800F02F
:104F000069B800BFE40000202D5C0008F400002018
:104F100041680C4B994210B5044601D000F086FE62
:104F2000A168094B994202D0204600F07FFEE1685B
:104F3000064B994204D02046BDE8104000F076BEF2
:104F400010BD00BFB81000202011002088110020E3
:104F500010B50B4B0B4C0C4A1A6020460022042162
:104F6000FFF794FF04F1680001220921FFF78EFF8B
:104F700004F1D0000222BDE810401221FFF786BFE5
:104F8000F0110020B8100020F94E0008014800F090
:104F900000BA00BFF9110020014800F0FBB900BFC2
:104FA000F911002010B50446FFF7F0FF236A1BB18A
:104FB000BDE81040FFF7F0BF044B2362044B1B68B1
:104FC000002BF5D1FFF7C4FFF2E700BF114F000837
:104FD000F01100202DE9F8430746884614460026C4
:104FE000D4E90195B9F1010905D52468002CF7D160
:104FF0003046BDE8F883AB89012B07D9B5F90E30EF
:10500000013303D029463846C04706436835E9E7EF
:105010000FB407B5064904AB086853F8042B816840
:10502000019300F0DBFA03B05DF804EB04B07047C5
:10503000F0000020036A70B5846805460E460BB97F
:10504000FFF7B0FF636EDB0705D4A389980502D490
:10505000A06D00F09EF9A389190702D52369002BE2
:1050600035D12146284600F0C5F880B34FF0FF3512
:10507000636EDA0705D4A3899B0502D4A06D00F006
:1050800089F9284670BD002B04DAA2699A4217DC20
:105090000A2915D023685A1C22601970A36816F8D3
:1050A000011F013BA3600029EDD1002B11DA22463C
:1050B0000A21284600F05FF80130D7D00A25D7E74B
:1050C0002246284600F057F80130E7D1CEE7013EEE
:1050D000E4E723685A1C22600A221A70EEE70000F7
:1050E000024B01461868FFF7A5BF00BFF000002083
:1050F00010B50C46B1F90E1000F0FCF80028ABBF5B
:10510000636DA3891B1823F48053ACBF6365A3812F
:1051100010BD2DE9F0411F468B89DB0505460C4685
:10512000164605D5B1F90E100223002200F0D0F882
:10513000A389B4F90E1023F48053A38132463B4671
:105140002846BDE8F04100F0E7B810B50C46B1F9CB
:105150000E1000F0BDF8431CA38915BF606523F451
:10516000805343F48053A38118BFA38110BDB1F9CC
:105170000E1000F09DB8F8B50E461446054618B15D
:10518000036A0BB9FFF70EFFA369A360A3891A078F
:1051900001D5236943B92146284600F02BF818B100
:1051A0004FF0FF373846F8BD23682269981A6369C3
:1051B000F6B28342374605DC2146284600F036FD2C
:1051C0000028EDD1A368013BA36023685A1C22602C
:1051D0001E706269431C9A4204D0A389DB07E1D5A3
:1051E0000A2EDFD12146284600F020FD0028D9D024
:1051F000D6E7000038B5294B054618680C4618B1AB
:10520000036A0BB9FFF7CEFEB4F90C30190722D4AC
:10521000DA0607D409222A6043F04003A3814FF045
:10522000FF3033E0580712D5616B41B104F14403FC
:10523000994202D0284600F0AFF800236363A389A7
:1052400023F02403A3810023636023692360A389DF
:1052500043F00803A38123694BB9A38903F42073A6
:10526000B3F5007F03D02146284600F02DFDB4F9A8
:105270000C3013F001020AD00022A260626952428F
:10528000A261226942B913F08000C5D138BD9907E7
:1052900058BF6269A260F4E70020F7E7F000002041
:1052A00002440346934200D1704703F8011BF9E71B
:1052B00038B5064D0023044608462B60FBF74AFC30
:1052C000431C02D12B6803B1236038BDF4110020C8
:1052D00038B5074D04460846114600222A601A4692
:1052E000FBF742FC431C02D12B6803B1236038BD9D
:1052F000F411002038B5074D044608461146002237
:105300002A601A46FBF716FC431C02D12B6803B136
:10531000236038BDF411002038B5074D0446084617
:10532000114600222A601A46FBF74EFC431C02D1AC
:105330002B6803B1236038BDF4110020014B1868BD
:10534000704700BFF000002070B50D4D0D4C641B80
:10535000A4100026A64209D10B4D0C4C00F022FDF2
:10536000641BA4100026A64205D170BD55F8043B6D
:1053700098470136EEE755F8043B98470136F2E7C7
:105380004062000840620008406200084462000871
:10539000704770477047000038B50546002941D076
:1053A00051F8043C0C1F002BB8BFE41800F0E0F8E3
:1053B0001D4A136833B9636014602846BDE838405D
:1053C00000F0DCB8A34208D9206821188B4201BF45
:1053D00019685B6809182160EDE71A465B680BB134
:1053E000A342FAD911685018A0420BD12068014499
:1053F000501883421160E0D118685B68536008441C
:105400001060DAE702D90C232B60D6E72068211858
:105410008B4204BF19685B68636004BF0918216090
:105420005460CAE738BD00BF0012002070B50F4EAF
:105430000C463168054611B900F0A4FC30602146E5
:10544000284600F09FFC431C03D14FF0FF34204658
:1054500070BDC41C24F00304A042F8D0211A2846D1
:1054600000F090FC0130F2D1EFE700BFFC1100200A
:105470002DE9F843CD1C25F0030508350C2D38BF68
:105480000C25002D064601DBA94204D90C2333600C
:105490000020BDE8F883DFF8D48000F069F8D8F880
:1054A00000301C4644BB29463046FFF7BFFF431C73
:1054B000044658D1D8F800402746002F43D1002C8D
:1054C0004BD023683946304604EB030900F05AFC00
:1054D000814542D121686D1A29463046FFF7A6FF63
:1054E00001303AD023682B442360D8F800305A6842
:1054F00062BBC8F800700FE02268521B20D40B2A50
:1055000017D96119A342256018BF5960636808BFA5
:10551000C8F8001062514B60304600F02FF804F1DB
:105520000B00231D20F00700C21A1CBF1B1AA3503A
:10553000AFE76268A3420CBFC8F800205A60EBE7EF
:1055400023466468AEE73C467F68B6E71A465B6868
:10555000A342FBD100235360DEE70C2333603046C7
:1055600000F00CF894E70560D6E700BF00120020B9
:105570000148FFF70EBF00BFF81100200148FFF7F8
:1055800009BF00BFF81100209368013B002B10B445
:10559000936008DA9469A34201DB0A2903D15DF81C
:1055A000044BFFF7E8BD1368581C106019700846DB
:1055B0005DF8044B7047F8B506460F461446D518FB
:1055C000AC4201D1002007E014F8011B3A463046F6
:1055D000FFF7DAFF431CF3D1F8BD00002DE9F04FCF
:1055E0000D469DB014469846064618B1036A0BB99D
:1055F000FFF7D8FC6B6ED90705D4AB899A0502D4A6
:10560000A86DFFF7C6FEAB891B0701D52B699BB9B7
:1056100029463046FFF7EEFD70B16B6EDC0704D50E
:105620004FF0FF301DB0BDE8F08FAB899805F7D47F
:10563000A86DFFF7AFFEF3E70023099320238DF851
:105640002930CDF80C803023DFF8AC818DF82A307A
:105650004FF0010923469A4613F8012B0AB1252A77
:10566000F9D1BAEB040B0BD05B46224629463046F3
:10567000FFF7A1FF013000F0A780099A5A44099270
:105680009AF80030002B00F09F8000234FF0FF328B
:10569000CDE905230AF1010A049307938DF85330ED
:1056A0001A935446052214F8011B5348FAF798FD43
:1056B000049AD8B9D10644BF20238DF8533013077C
:1056C00044BF2B238DF853309AF800302A2B15D085
:1056D000079A544600204FF00A0C214611F8013B6E
:1056E000303B092B4BD9B0B1079214E0A0EB080373
:1056F00009FA03F313430493A246D2E7039B191D4F
:105700001B680391002BBBBF5B4242F00202079370
:105710000793B8BF049223782E2B0AD163782A2BE3
:1057200032D1039B1A1D1B68039243EAE3730234D0
:105730000593DFF8D4A0217803225046FAF750FDF4
:1057400038B1049BA0EB0A0040228240134301348D
:10575000049314F8011B29488DF828100622FAF743
:105760003FFD00283FD0264B1BBB039B073323F094
:10577000070308330393099B3B4409936AE70CFB37
:1057800002320C460120A8E7002301340593194694
:105790004FF00A0C204610F8012B303A092A03D9A1
:1057A000002BC6D00591C4E70CFB01210446012360
:1057B000F0E703AB00932A46124B04A93046AFF33F
:1057C00000800746781CD6D16B6ED90705D4AB890B
:1057D0009A0502D4A86DFFF7DDFDAB895B063FF5A6
:1057E0001FAF09981EE703AB00932A46054B04A997
:1057F000304600F079F8E4E7046200080E62000821
:1058000000000000B75500080A6200082DE9F047C3
:10581000164698468A680B69DDF820909342B8BF17
:105820001346336091F8432007460C460AB1013312
:1058300033602368990642BF3368023333602568BA
:1058400015F0060506D104F1190AE36832689B1ABF
:10585000AB4226DC94F843302268003B18BF01239A
:1058600092062BD404F1430241463846C847013022
:105870001ED02368226903F00603042B02BFE568EB
:105880003368ED1AA3680CBF25EAE575002593423D
:10589000C4BF9B1AED1800261A34B5421AD1002055
:1058A00008E00123524641463846C847013003D13B
:1058B0004FF0FF30BDE8F0870135C6E7E1185A1C0C
:1058C000302081F84300224494F8451082F84310B8
:1058D0000233C7E70123224641463846C847013014
:1058E000E6D00136D9E700002DE9FF470F7E0C9E78
:1058F000782F914680460C469A4601F1430207D81C
:10590000622F0AD8002F00F0D180582F00F0B88005
:1059100004F1420684F842703AE0A7F16303152BC4
:10592000F6D801A151F823F08159000895590008D3
:10593000115900081159000811590008115900089F
:10594000955900081159000811590008115900080B
:1059500011590008935A0008BF5900084D5A000811
:105960001159000811590008B55A000811590008CA
:10597000BF5900081159000811590008555A00086C
:1059800033681A1D1B68326004F1420684F8423005
:1059900001239CE033682068191D3160060601D59B
:1059A0001D6803E04506FBD5B3F90050002D03DA6E
:1059B0002D236D4284F8433058480A2311E02168B2
:1059C0003368080653F8045B02D4490648BFADB2F9
:1059D0006F2F5248336014BF0A230823002184F834
:1059E00043106668A660002E05DB21682E4321F077
:1059F000040121604BD01646B5FBF3F103FB1157B0
:105A0000C75D06F8017D2F46BB420D46F4D9082B31
:105A10000BD12368DF0708D5236961689942DEBF8F
:105A2000302306F8013C06F1FF36921B2261CDF8C7
:105A300000A04B4603AA21464046FFF7E7FE01308F
:105A40004AD14FF0FF3004B0BDE8F087236843F03F
:105A5000200323603248782784F845702368316832
:105A60001F0651F8045B02D45F0648BFADB2316037
:105A7000D90744BF43F0200323601DB11023ADE7D5
:105A80002648E9E7236823F020032360F6E716465B
:105A9000BDE7336825686169181D30602E061B68F4
:105AA00001D5196002E06806FBD519800023236147
:105AB0001646BCE733681A1D32601E686268002112
:105AC0003046FAF78DFB08B1801B60606368236184
:105AD000002384F84330AAE723693246494640460A
